{
  "contractName": "HealthRecord",
  "abi": [
    {
      "inputs": [],
      "stateMutability": "nonpayable",
      "type": "constructor"
    },
    {
      "anonymous": false,
      "inputs": [
        {
          "indexed": false,
          "internalType": "address",
          "name": "sender_",
          "type": "address"
        },
        {
          "indexed": false,
          "internalType": "bool",
          "name": "isActive",
          "type": "bool"
        }
      ],
      "name": "Loggin",
      "type": "event"
    },
    {
      "inputs": [
        {
          "internalType": "string",
          "name": "passHash_",
          "type": "string"
        },
        {
          "internalType": "string",
          "name": "infoHash_",
          "type": "string"
        }
      ],
      "name": "putLoginInfo",
      "outputs": [],
      "stateMutability": "nonpayable",
      "type": "function"
    },
    {
      "inputs": [
        {
          "internalType": "string",
          "name": "hash_",
          "type": "string"
        }
      ],
      "name": "getLoginInfo",
      "outputs": [
        {
          "internalType": "string",
          "name": "",
          "type": "string"
        }
      ],
      "stateMutability": "view",
      "type": "function",
      "constant": true
    },
    {
      "inputs": [
        {
          "internalType": "address",
          "name": "user_",
          "type": "address"
        },
        {
          "internalType": "string",
          "name": "pKey",
          "type": "string"
        },
        {
          "internalType": "string",
          "name": "encryptedLogin_",
          "type": "string"
        },
        {
          "internalType": "string",
          "name": "encryptedInfo_",
          "type": "string"
        }
      ],
      "name": "registerUser",
      "outputs": [],
      "stateMutability": "nonpayable",
      "type": "function"
    },
    {
      "inputs": [
        {
          "internalType": "address",
          "name": "user_",
          "type": "address"
        }
      ],
      "name": "getUserEncrypted",
      "outputs": [
        {
          "internalType": "string",
          "name": "",
          "type": "string"
        },
        {
          "internalType": "string",
          "name": "",
          "type": "string"
        }
      ],
      "stateMutability": "view",
      "type": "function",
      "constant": true
    },
    {
      "inputs": [
        {
          "internalType": "address",
          "name": "user_",
          "type": "address"
        }
      ],
      "name": "getUserPublicKey",
      "outputs": [
        {
          "internalType": "string",
          "name": "",
          "type": "string"
        }
      ],
      "stateMutability": "view",
      "type": "function",
      "constant": true
    },
    {
      "inputs": [
        {
          "internalType": "address",
          "name": "user_",
          "type": "address"
        }
      ],
      "name": "getProviderPublicKey",
      "outputs": [
        {
          "internalType": "string",
          "name": "",
          "type": "string"
        }
      ],
      "stateMutability": "view",
      "type": "function",
      "constant": true
    },
    {
      "inputs": [
        {
          "internalType": "string",
          "name": "venue_",
          "type": "string"
        },
        {
          "internalType": "string",
          "name": "location_",
          "type": "string"
        },
        {
          "internalType": "string",
          "name": "date_",
          "type": "string"
        },
        {
          "internalType": "address",
          "name": "provider_",
          "type": "address"
        },
        {
          "internalType": "string",
          "name": "encryptedUserInfo_",
          "type": "string"
        }
      ],
      "name": "userMakeAppointment",
      "outputs": [],
      "stateMutability": "nonpayable",
      "type": "function"
    },
    {
      "inputs": [
        {
          "internalType": "uint256",
          "name": "count_",
          "type": "uint256"
        },
        {
          "internalType": "address",
          "name": "users_",
          "type": "address"
        }
      ],
      "name": "getUserAppointmentList",
      "outputs": [
        {
          "internalType": "string",
          "name": "",
          "type": "string"
        },
        {
          "internalType": "string",
          "name": "",
          "type": "string"
        },
        {
          "internalType": "string",
          "name": "",
          "type": "string"
        }
      ],
      "stateMutability": "view",
      "type": "function",
      "constant": true
    },
    {
      "inputs": [
        {
          "internalType": "uint256",
          "name": "count_",
          "type": "uint256"
        },
        {
          "internalType": "address",
          "name": "provider_",
          "type": "address"
        }
      ],
      "name": "getProviderAppointmentList",
      "outputs": [
        {
          "internalType": "address",
          "name": "",
          "type": "address"
        },
        {
          "internalType": "string",
          "name": "",
          "type": "string"
        },
        {
          "internalType": "string",
          "name": "",
          "type": "string"
        }
      ],
      "stateMutability": "view",
      "type": "function",
      "constant": true
    },
    {
      "inputs": [
        {
          "internalType": "address",
          "name": "users_",
          "type": "address"
        }
      ],
      "name": "getUserAppointmentListLength",
      "outputs": [
        {
          "internalType": "uint256",
          "name": "",
          "type": "uint256"
        }
      ],
      "stateMutability": "view",
      "type": "function",
      "constant": true
    },
    {
      "inputs": [
        {
          "internalType": "address",
          "name": "provider_",
          "type": "address"
        }
      ],
      "name": "getProviderAppointmentListLength",
      "outputs": [
        {
          "internalType": "uint256",
          "name": "",
          "type": "uint256"
        }
      ],
      "stateMutability": "view",
      "type": "function",
      "constant": true
    },
    {
      "inputs": [
        {
          "internalType": "uint256",
          "name": "count_",
          "type": "uint256"
        },
        {
          "internalType": "address",
          "name": "provider_",
          "type": "address"
        }
      ],
      "name": "getProviderHistoryList",
      "outputs": [
        {
          "internalType": "address",
          "name": "",
          "type": "address"
        },
        {
          "internalType": "string",
          "name": "",
          "type": "string"
        }
      ],
      "stateMutability": "view",
      "type": "function",
      "constant": true
    },
    {
      "inputs": [
        {
          "internalType": "address",
          "name": "provider_",
          "type": "address"
        }
      ],
      "name": "getProviderHistoryListLength",
      "outputs": [
        {
          "internalType": "uint256",
          "name": "",
          "type": "uint256"
        }
      ],
      "stateMutability": "view",
      "type": "function",
      "constant": true
    },
    {
      "inputs": [
        {
          "internalType": "address",
          "name": "kiosk_",
          "type": "address"
        },
        {
          "internalType": "string",
          "name": "location_",
          "type": "string"
        },
        {
          "internalType": "string",
          "name": "name_",
          "type": "string"
        },
        {
          "internalType": "string",
          "name": "pKey",
          "type": "string"
        },
        {
          "internalType": "string",
          "name": "encryptedLogin_",
          "type": "string"
        }
      ],
      "name": "registerKiosk",
      "outputs": [],
      "stateMutability": "nonpayable",
      "type": "function"
    },
    {
      "inputs": [
        {
          "internalType": "address",
          "name": "hospital_",
          "type": "address"
        },
        {
          "internalType": "string",
          "name": "location_",
          "type": "string"
        },
        {
          "internalType": "string",
          "name": "name_",
          "type": "string"
        },
        {
          "internalType": "string",
          "name": "pKey",
          "type": "string"
        },
        {
          "internalType": "string",
          "name": "encryptedLogin_",
          "type": "string"
        }
      ],
      "name": "registerHospital",
      "outputs": [],
      "stateMutability": "nonpayable",
      "type": "function"
    },
    {
      "inputs": [
        {
          "internalType": "address",
          "name": "provider_",
          "type": "address"
        }
      ],
      "name": "getProviderEncryptedLogin",
      "outputs": [
        {
          "internalType": "string",
          "name": "",
          "type": "string"
        }
      ],
      "stateMutability": "view",
      "type": "function",
      "constant": true
    },
    {
      "inputs": [
        {
          "internalType": "address",
          "name": "provider_",
          "type": "address"
        }
      ],
      "name": "disableProvider",
      "outputs": [],
      "stateMutability": "nonpayable",
      "type": "function"
    },
    {
      "inputs": [
        {
          "internalType": "address",
          "name": "provider_",
          "type": "address"
        }
      ],
      "name": "getProviderInfo",
      "outputs": [
        {
          "internalType": "string",
          "name": "",
          "type": "string"
        },
        {
          "internalType": "string",
          "name": "",
          "type": "string"
        },
        {
          "internalType": "string",
          "name": "",
          "type": "string"
        }
      ],
      "stateMutability": "view",
      "type": "function",
      "constant": true
    },
    {
      "inputs": [
        {
          "internalType": "string",
          "name": "testResult_",
          "type": "string"
        },
        {
          "internalType": "string",
          "name": "date_",
          "type": "string"
        },
        {
          "internalType": "string",
          "name": "placeName_",
          "type": "string"
        },
        {
          "internalType": "string",
          "name": "place_",
          "type": "string"
        },
        {
          "internalType": "address",
          "name": "endUser",
          "type": "address"
        },
        {
          "internalType": "uint256",
          "name": "amount_",
          "type": "uint256"
        }
      ],
      "name": "addPendingHealthRecord",
      "outputs": [],
      "stateMutability": "nonpayable",
      "type": "function"
    },
    {
      "inputs": [
        {
          "internalType": "address",
          "name": "user_",
          "type": "address"
        },
        {
          "internalType": "bool",
          "name": "paidStatus_",
          "type": "bool"
        },
        {
          "internalType": "uint256",
          "name": "count_",
          "type": "uint256"
        }
      ],
      "name": "updatePendingHealthRecord",
      "outputs": [],
      "stateMutability": "nonpayable",
      "type": "function"
    },
    {
      "inputs": [
        {
          "internalType": "uint256",
          "name": "count_",
          "type": "uint256"
        },
        {
          "internalType": "address",
          "name": "user_",
          "type": "address"
        }
      ],
      "name": "getPendingHealthRecord",
      "outputs": [
        {
          "internalType": "string",
          "name": "",
          "type": "string"
        },
        {
          "internalType": "string",
          "name": "",
          "type": "string"
        },
        {
          "internalType": "string",
          "name": "",
          "type": "string"
        },
        {
          "internalType": "string",
          "name": "",
          "type": "string"
        },
        {
          "internalType": "uint256",
          "name": "",
          "type": "uint256"
        },
        {
          "internalType": "bool",
          "name": "",
          "type": "bool"
        },
        {
          "internalType": "address",
          "name": "",
          "type": "address"
        }
      ],
      "stateMutability": "view",
      "type": "function",
      "constant": true
    },
    {
      "inputs": [
        {
          "internalType": "address",
          "name": "user_",
          "type": "address"
        }
      ],
      "name": "getPendingHealthRecordLength",
      "outputs": [
        {
          "internalType": "uint256",
          "name": "",
          "type": "uint256"
        }
      ],
      "stateMutability": "view",
      "type": "function",
      "constant": true
    },
    {
      "inputs": [],
      "name": "getHospitalListLength",
      "outputs": [
        {
          "internalType": "uint256",
          "name": "",
          "type": "uint256"
        }
      ],
      "stateMutability": "view",
      "type": "function",
      "constant": true
    },
    {
      "inputs": [
        {
          "internalType": "uint256",
          "name": "count_",
          "type": "uint256"
        }
      ],
      "name": "getHospitalList",
      "outputs": [
        {
          "internalType": "address",
          "name": "",
          "type": "address"
        },
        {
          "internalType": "string",
          "name": "",
          "type": "string"
        },
        {
          "internalType": "string",
          "name": "",
          "type": "string"
        },
        {
          "internalType": "string",
          "name": "",
          "type": "string"
        }
      ],
      "stateMutability": "view",
      "type": "function",
      "constant": true
    },
    {
      "inputs": [],
      "name": "getOwner",
      "outputs": [
        {
          "internalType": "address",
          "name": "",
          "type": "address"
        }
      ],
      "stateMutability": "view",
      "type": "function",
      "constant": true
    }
  ],
  "bytecode": "0x608060405234801561001057600080fd5b50336000806101000a81548173ffffffffffffffffffffffffffffffffffffffff021916908373ffffffffffffffffffffffffffffffffffffffff160217905550615246806100606000396000f3fe608060405234801561001057600080fd5b50600436106101335760003560e01c806311231fe01461013857806313f7c462146101f55780631d4a4fab14610345578063396deea2146104795780634ff6e86e146105cb5780635c08671f146106885780635cfe9b60146107b15780636b5dd33f14610a515780637125b6f114610aa95780637583902f14610ce157806385cef0b514610e76578063893d20e814610ece5780638dc2fe9814610f0257806393125b9d14610f465780639a4a9b681461102a578063a66acefd146112d4578063b0518f4c14611391578063d64469c514611530578063e0235456146116cc578063eb38db121461196c578063ef18b520146119c6578063f409eb4614611c66578063f559b2b214611cbe578063fe69c29614611d16578063fe75061714611f1f575b600080fd5b61017a6004803603602081101561014e57600080fd5b81019080803573ffffffffffffffffffffffffffffffffffffffff169060200190929190505050611f3d565b6040518080602001828103825283818151815260200191508051906020019080838360005b838110156101ba57808201518184015260208101905061019f565b50505050905090810190601f1680156101e75780820380516001836020036101000a031916815260200191505b509250505060405180910390f35b6102416004803603604081101561020b57600080fd5b8101908080359060200190929190803573ffffffffffffffffffffffffffffffffffffffff169060200190929190505050612021565b604051808473ffffffffffffffffffffffffffffffffffffffff1681526020018060200180602001838103835285818151815260200191508051906020019080838360005b838110156102a1578082015181840152602081019050610286565b50505050905090810190601f1680156102ce5780820380516001836020036101000a031916815260200191505b50838103825284818151815260200191508051906020019080838360005b838110156103075780820151818401526020810190506102ec565b50505050905090810190601f1680156103345780820380516001836020036101000a031916815260200191505b509550505050505060405180910390f35b6103fe6004803603602081101561035b57600080fd5b810190808035906020019064010000000081111561037857600080fd5b82018360208201111561038a57600080fd5b803590602001918460018302840111640100000000831117156103ac57600080fd5b91908080601f016020809104026020016040519081016040528093929190818152602001838380828437600081840152601f19601f820116905080830192505050505050509192919290505050612347565b6040518080602001828103825283818151815260200191508051906020019080838360005b8381101561043e578082015181840152602081019050610423565b50505050905090810190601f16801561046b5780820380516001836020036101000a031916815260200191505b509250505060405180910390f35b6105c96004803603604081101561048f57600080fd5b81019080803590602001906401000000008111156104ac57600080fd5b8201836020820111156104be57600080fd5b803590602001918460018302840111640100000000831117156104e057600080fd5b91908080601f016020809104026020016040519081016040528093929190818152602001838380828437600081840152601f19601f8201169050808301925050505050505091929192908035906020019064010000000081111561054357600080fd5b82018360208201111561055557600080fd5b8035906020019184600183028401116401000000008311171561057757600080fd5b91908080601f016020809104026020016040519081016040528093929190818152602001838380828437600081840152601f19601f820116905080830192505050505050509192919290505050612452565b005b61060d600480360360208110156105e157600080fd5b81019080803573ffffffffffffffffffffffffffffffffffffffff1690602001909291905050506124d4565b6040518080602001828103825283818151815260200191508051906020019080838360005b8381101561064d578082015181840152602081019050610632565b50505050905090810190601f16801561067a5780820380516001836020036101000a031916815260200191505b509250505060405180910390f35b6106ca6004803603602081101561069e57600080fd5b81019080803573ffffffffffffffffffffffffffffffffffffffff1690602001909291905050506125b8565b604051808060200180602001838103835285818151815260200191508051906020019080838360005b8381101561070e5780820151818401526020810190506106f3565b50505050905090810190601f16801561073b5780820380516001836020036101000a031916815260200191505b50838103825284818151815260200191508051906020019080838360005b83811015610774578082015181840152602081019050610759565b50505050905090810190601f1680156107a15780820380516001836020036101000a031916815260200191505b5094505050505060405180910390f35b610a4f600480360360a08110156107c757600080fd5b81019080803573ffffffffffffffffffffffffffffffffffffffff1690602001909291908035906020019064010000000081111561080457600080fd5b82018360208201111561081657600080fd5b8035906020019184600183028401116401000000008311171561083857600080fd5b91908080601f016020809104026020016040519081016040528093929190818152602001838380828437600081840152601f19601f8201169050808301925050505050505091929192908035906020019064010000000081111561089b57600080fd5b8201836020820111156108ad57600080fd5b803590602001918460018302840111640100000000831117156108cf57600080fd5b91908080601f016020809104026020016040519081016040528093929190818152602001838380828437600081840152601f19601f8201169050808301925050505050505091929192908035906020019064010000000081111561093257600080fd5b82018360208201111561094457600080fd5b8035906020019184600183028401116401000000008311171561096657600080fd5b91908080601f016020809104026020016040519081016040528093929190818152602001838380828437600081840152601f19601f820116905080830192505050505050509192919290803590602001906401000000008111156109c957600080fd5b8201836020820111156109db57600080fd5b803590602001918460018302840111640100000000831117156109fd57600080fd5b91908080601f016020809104026020016040519081016040528093929190818152602001838380828437600081840152601f19601f820116905080830192505050505050509192919290505050612780565b005b610a9360048036036020811015610a6757600080fd5b81019080803573ffffffffffffffffffffffffffffffffffffffff169060200190929190505050612a80565b6040518082815260200191505060405180910390f35b610af560048036036040811015610abf57600080fd5b8101908080359060200190929190803573ffffffffffffffffffffffffffffffffffffffff169060200190929190505050612b70565b604051808060200180602001806020018060200188815260200187151581526020018673ffffffffffffffffffffffffffffffffffffffff16815260200185810385528c818151815260200191508051906020019080838360005b83811015610b6b578082015181840152602081019050610b50565b50505050905090810190601f168015610b985780820380516001836020036101000a031916815260200191505b5085810384528b818151815260200191508051906020019080838360005b83811015610bd1578082015181840152602081019050610bb6565b50505050905090810190601f168015610bfe5780820380516001836020036101000a031916815260200191505b5085810383528a818151815260200191508051906020019080838360005b83811015610c37578082015181840152602081019050610c1c565b50505050905090810190601f168015610c645780820380516001836020036101000a031916815260200191505b50858103825289818151815260200191508051906020019080838360005b83811015610c9d578082015181840152602081019050610c82565b50505050905090810190601f168015610cca5780820380516001836020036101000a031916815260200191505b509b50505050505050505050505060405180910390f35b610d2360048036036020811015610cf757600080fd5b81019080803573ffffffffffffffffffffffffffffffffffffffff16906020019092919050505061310b565b60405180806020018060200180602001848103845287818151815260200191508051906020019080838360005b83811015610d6b578082015181840152602081019050610d50565b50505050905090810190601f168015610d985780820380516001836020036101000a031916815260200191505b50848103835286818151815260200191508051906020019080838360005b83811015610dd1578082015181840152602081019050610db6565b50505050905090810190601f168015610dfe5780820380516001836020036101000a031916815260200191505b50848103825285818151815260200191508051906020019080838360005b83811015610e37578082015181840152602081019050610e1c565b50505050905090810190601f168015610e645780820380516001836020036101000a031916815260200191505b50965050505050505060405180910390f35b610eb860048036036020811015610e8c57600080fd5b81019080803573ffffffffffffffffffffffffffffffffffffffff169060200190929190505050613410565b6040518082815260200191505060405180910390f35b610ed6613500565b604051808273ffffffffffffffffffffffffffffffffffffffff16815260200191505060405180910390f35b610f4460048036036020811015610f1857600080fd5b81019080803573ffffffffffffffffffffffffffffffffffffffff169060200190929190505050613529565b005b610f9260048036036040811015610f5c57600080fd5b8101908080359060200190929190803573ffffffffffffffffffffffffffffffffffffffff169060200190929190505050613648565b604051808373ffffffffffffffffffffffffffffffffffffffff16815260200180602001828103825283818151815260200191508051906020019080838360005b83811015610fee578082015181840152602081019050610fd3565b50505050905090810190601f16801561101b5780820380516001836020036101000a031916815260200191505b50935050505060405180910390f35b6112d2600480360360c081101561104057600080fd5b810190808035906020019064010000000081111561105d57600080fd5b82018360208201111561106f57600080fd5b8035906020019184600183028401116401000000008311171561109157600080fd5b91908080601f016020809104026020016040519081016040528093929190818152602001838380828437600081840152601f19601f820116905080830192505050505050509192919290803590602001906401000000008111156110f457600080fd5b82018360208201111561110657600080fd5b8035906020019184600183028401116401000000008311171561112857600080fd5b91908080601f016020809104026020016040519081016040528093929190818152602001838380828437600081840152601f19601f8201169050808301925050505050505091929192908035906020019064010000000081111561118b57600080fd5b82018360208201111561119d57600080fd5b803590602001918460018302840111640100000000831117156111bf57600080fd5b91908080601f016020809104026020016040519081016040528093929190818152602001838380828437600081840152601f19601f8201169050808301925050505050505091929192908035906020019064010000000081111561122257600080fd5b82018360208201111561123457600080fd5b8035906020019184600183028401116401000000008311171561125657600080fd5b91908080601f016020809104026020016040519081016040528093929190818152602001838380828437600081840152601f19601f820116905080830192505050505050509192919290803573ffffffffffffffffffffffffffffffffffffffff16906020019092919080359060200190929190505050613871565b005b611316600480360360208110156112ea57600080fd5b81019080803573ffffffffffffffffffffffffffffffffffffffff169060200190929190505050613b98565b6040518080602001828103825283818151815260200191508051906020019080838360005b8381101561135657808201518184015260208101905061133b565b50505050905090810190601f1680156113835780820380516001836020036101000a031916815260200191505b509250505060405180910390f35b6113dd600480360360408110156113a757600080fd5b8101908080359060200190929190803573ffffffffffffffffffffffffffffffffffffffff169060200190929190505050613c7c565b60405180806020018060200180602001848103845287818151815260200191508051906020019080838360005b8381101561142557808201518184015260208101905061140a565b50505050905090810190601f1680156114525780820380516001836020036101000a031916815260200191505b50848103835286818151815260200191508051906020019080838360005b8381101561148b578082015181840152602081019050611470565b50505050905090810190601f1680156114b85780820380516001836020036101000a031916815260200191505b50848103825285818151815260200191508051906020019080838360005b838110156114f15780820151818401526020810190506114d6565b50505050905090810190601f16801561151e5780820380516001836020036101000a031916815260200191505b50965050505050505060405180910390f35b61155c6004803603602081101561154657600080fd5b810190808035906020019092919050505061401d565b604051808573ffffffffffffffffffffffffffffffffffffffff168152602001806020018060200180602001848103845287818151815260200191508051906020019080838360005b838110156115c05780820151818401526020810190506115a5565b50505050905090810190601f1680156115ed5780820380516001836020036101000a031916815260200191505b50848103835286818151815260200191508051906020019080838360005b8381101561162657808201518184015260208101905061160b565b50505050905090810190601f1680156116535780820380516001836020036101000a031916815260200191505b50848103825285818151815260200191508051906020019080838360005b8381101561168c578082015181840152602081019050611671565b50505050905090810190601f1680156116b95780820380516001836020036101000a031916815260200191505b5097505050505050505060405180910390f35b61196a600480360360a08110156116e257600080fd5b81019080803573ffffffffffffffffffffffffffffffffffffffff1690602001909291908035906020019064010000000081111561171f57600080fd5b82018360208201111561173157600080fd5b8035906020019184600183028401116401000000008311171561175357600080fd5b91908080601f016020809104026020016040519081016040528093929190818152602001838380828437600081840152601f19601f820116905080830192505050505050509192919290803590602001906401000000008111156117b657600080fd5b8201836020820111156117c857600080fd5b803590602001918460018302840111640100000000831117156117ea57600080fd5b91908080601f016020809104026020016040519081016040528093929190818152602001838380828437600081840152601f19601f8201169050808301925050505050505091929192908035906020019064010000000081111561184d57600080fd5b82018360208201111561185f57600080fd5b8035906020019184600183028401116401000000008311171561188157600080fd5b91908080601f016020809104026020016040519081016040528093929190818152602001838380828437600081840152601f19601f820116905080830192505050505050509192919290803590602001906401000000008111156118e457600080fd5b8201836020820111156118f657600080fd5b8035906020019184600183028401116401000000008311171561191857600080fd5b91908080601f016020809104026020016040519081016040528093929190818152602001838380828437600081840152601f19601f8201169050808301925050505050505091929192905050506142a0565b005b6119c46004803603606081101561198257600080fd5b81019080803573ffffffffffffffffffffffffffffffffffffffff16906020019092919080351515906020019092919080359060200190929190505050614796565b005b611c64600480360360a08110156119dc57600080fd5b81019080803590602001906401000000008111156119f957600080fd5b820183602082011115611a0b57600080fd5b80359060200191846001830284011164010000000083111715611a2d57600080fd5b91908080601f016020809104026020016040519081016040528093929190818152602001838380828437600081840152601f19601f82011690508083019250505050505050919291929080359060200190640100000000811115611a9057600080fd5b820183602082011115611aa257600080fd5b80359060200191846001830284011164010000000083111715611ac457600080fd5b91908080601f016020809104026020016040519081016040528093929190818152602001838380828437600081840152601f19601f82011690508083019250505050505050919291929080359060200190640100000000811115611b2757600080fd5b820183602082011115611b3957600080fd5b80359060200191846001830284011164010000000083111715611b5b57600080fd5b91908080601f016020809104026020016040519081016040528093929190818152602001838380828437600081840152601f19601f820116905080830192505050505050509192919290803573ffffffffffffffffffffffffffffffffffffffff16906020019092919080359060200190640100000000811115611bde57600080fd5b820183602082011115611bf057600080fd5b80359060200191846001830284011164010000000083111715611c1257600080fd5b91908080601f016020809104026020016040519081016040528093929190818152602001838380828437600081840152601f19601f820116905080830192505050505050509192919290505050614811565b005b611ca860048036036020811015611c7c57600080fd5b81019080803573ffffffffffffffffffffffffffffffffffffffff169060200190929190505050614a7b565b6040518082815260200191505060405180910390f35b611d0060048036036020811015611cd457600080fd5b81019080803573ffffffffffffffffffffffffffffffffffffffff169060200190929190505050614b6b565b6040518082815260200191505060405180910390f35b611f1d60048036036080811015611d2c57600080fd5b81019080803573ffffffffffffffffffffffffffffffffffffffff16906020019092919080359060200190640100000000811115611d6957600080fd5b820183602082011115611d7b57600080fd5b80359060200191846001830284011164010000000083111715611d9d57600080fd5b91908080601f016020809104026020016040519081016040528093929190818152602001838380828437600081840152601f19601f82011690508083019250505050505050919291929080359060200190640100000000811115611e0057600080fd5b820183602082011115611e1257600080fd5b80359060200191846001830284011164010000000083111715611e3457600080fd5b91908080601f016020809104026020016040519081016040528093929190818152602001838380828437600081840152601f19601f82011690508083019250505050505050919291929080359060200190640100000000811115611e9757600080fd5b820183602082011115611ea957600080fd5b80359060200191846001830284011164010000000083111715611ecb57600080fd5b91908080601f016020809104026020016040519081016040528093929190818152602001838380828437600081840152601f19601f820116905080830192505050505050509192919290505050614bf2565b005b611f27614dd9565b6040518082815260200191505060405180910390f35b6060600460008373ffffffffffffffffffffffffffffffffffffffff1673ffffffffffffffffffffffffffffffffffffffff1681526020019081526020016000206006018054600181600116156101000203166002900480601f0160208091040260200160405190810160405280929190818152602001828054600181600116156101000203166002900480156120155780601f10611fea57610100808354040283529160200191612015565b820191906000526020600020905b815481529060010190602001808311611ff857829003601f168201915b50505050509050919050565b60006060808373ffffffffffffffffffffffffffffffffffffffff163373ffffffffffffffffffffffffffffffffffffffff16146120c7576040517f08c379a00000000000000000000000000000000000000000000000000000000081526004018080602001828103825260208152602001807f596f752063616e206f6e6c79207669657720796f7572206f776e20696e666f2e81525060200191505060405180910390fd5b600360008573ffffffffffffffffffffffffffffffffffffffff1673ffffffffffffffffffffffffffffffffffffffff168152602001908152602001600020600501858154811061211457fe5b906000526020600020906003020160000160009054906101000a900473ffffffffffffffffffffffffffffffffffffffff16600360008673ffffffffffffffffffffffffffffffffffffffff1673ffffffffffffffffffffffffffffffffffffffff168152602001908152602001600020600501868154811061219357fe5b9060005260206000209060030201600101600360008773ffffffffffffffffffffffffffffffffffffffff1673ffffffffffffffffffffffffffffffffffffffff16815260200190815260200160002060050187815481106121f157fe5b9060005260206000209060030201600201818054600181600116156101000203166002900480601f0160208091040260200160405190810160405280929190818152602001828054600181600116156101000203166002900480156122975780601f1061226c57610100808354040283529160200191612297565b820191906000526020600020905b81548152906001019060200180831161227a57829003601f168201915b50505050509150808054600181600116156101000203166002900480601f0160208091040260200160405190810160405280929190818152602001828054600181600116156101000203166002900480156123335780601f1061230857610100808354040283529160200191612333565b820191906000526020600020905b81548152906001019060200180831161231657829003601f168201915b505050505090509250925092509250925092565b60606002826040518082805190602001908083835b6020831061237f578051825260208201915060208101905060208303925061235c565b6001836020036101000a03801982511681845116808217855250505050505090500191505090815260200160405180910390208054600181600116156101000203166002900480601f0160208091040260200160405190810160405280929190818152602001828054600181600116156101000203166002900480156124465780601f1061241b57610100808354040283529160200191612446565b820191906000526020600020905b81548152906001019060200180831161242957829003601f168201915b50505050509050919050565b806002836040518082805190602001908083835b602083106124895780518252602082019150602081019050602083039250612466565b6001836020036101000a038019825116818451168082178552505050505050905001915050908152602001604051809103902090805190602001906124cf929190614de6565b505050565b6060600360008373ffffffffffffffffffffffffffffffffffffffff1673ffffffffffffffffffffffffffffffffffffffff1681526020019081526020016000206008018054600181600116156101000203166002900480601f0160208091040260200160405190810160405280929190818152602001828054600181600116156101000203166002900480156125ac5780601f10612581576101008083540402835291602001916125ac565b820191906000526020600020905b81548152906001019060200180831161258f57829003601f168201915b50505050509050919050565b606080600460008473ffffffffffffffffffffffffffffffffffffffff1673ffffffffffffffffffffffffffffffffffffffff168152602001908152602001600020600401600460008573ffffffffffffffffffffffffffffffffffffffff1673ffffffffffffffffffffffffffffffffffffffff168152602001908152602001600020600501818054600181600116156101000203166002900480601f0160208091040260200160405190810160405280929190818152602001828054600181600116156101000203166002900480156126d45780601f106126a9576101008083540402835291602001916126d4565b820191906000526020600020905b8154815290600101906020018083116126b757829003601f168201915b50505050509150808054600181600116156101000203166002900480601f0160208091040260200160405190810160405280929190818152602001828054600181600116156101000203166002900480156127705780601f1061274557610100808354040283529160200191612770565b820191906000526020600020905b81548152906001019060200180831161275357829003601f168201915b5050505050905091509150915091565b60008054906101000a900473ffffffffffffffffffffffffffffffffffffffff1673ffffffffffffffffffffffffffffffffffffffff163373ffffffffffffffffffffffffffffffffffffffff1614612841576040517f08c379a00000000000000000000000000000000000000000000000000000000081526004018080602001828103825260208152602001807f4f6e6c7920636f6e7472616374206f776e65722063616e20646f20746869732e81525060200191505060405180910390fd5b84600360008773ffffffffffffffffffffffffffffffffffffffff1673ffffffffffffffffffffffffffffffffffffffff16815260200190815260200160002060000160006101000a81548173ffffffffffffffffffffffffffffffffffffffff021916908373ffffffffffffffffffffffffffffffffffffffff16021790555083600360008773ffffffffffffffffffffffffffffffffffffffff1673ffffffffffffffffffffffffffffffffffffffff1681526020019081526020016000206001019080519060200190612918929190614de6565b5082600360008773ffffffffffffffffffffffffffffffffffffffff1673ffffffffffffffffffffffffffffffffffffffff168152602001908152602001600020600201908051906020019061296f929190614de6565b506001600360008773ffffffffffffffffffffffffffffffffffffffff1673ffffffffffffffffffffffffffffffffffffffff16815260200190815260200160002060030160006101000a81548160ff02191690831515021790555080600360008773ffffffffffffffffffffffffffffffffffffffff1673ffffffffffffffffffffffffffffffffffffffff1681526020019081526020016000206006019080519060200190612a21929190614de6565b5081600360008773ffffffffffffffffffffffffffffffffffffffff1673ffffffffffffffffffffffffffffffffffffffff1681526020019081526020016000206008019080519060200190612a78929190614de6565b505050505050565b60008173ffffffffffffffffffffffffffffffffffffffff163373ffffffffffffffffffffffffffffffffffffffff1614612b23576040517f08c379a00000000000000000000000000000000000000000000000000000000081526004018080602001828103825260208152602001807f596f752063616e206f6e6c79207669657720796f7572206f776e20696e666f2e81525060200191505060405180910390fd5b600360008373ffffffffffffffffffffffffffffffffffffffff1673ffffffffffffffffffffffffffffffffffffffff168152602001908152602001600020600501805490509050919050565b60608060608060008060008773ffffffffffffffffffffffffffffffffffffffff163373ffffffffffffffffffffffffffffffffffffffff1614612bb357600080fd5b600460008973ffffffffffffffffffffffffffffffffffffffff1673ffffffffffffffffffffffffffffffffffffffff1681526020019081526020016000206002018981548110612c0057fe5b9060005260206000209060070201600001600001600460008a73ffffffffffffffffffffffffffffffffffffffff1673ffffffffffffffffffffffffffffffffffffffff1681526020019081526020016000206002018a81548110612c6157fe5b9060005260206000209060070201600001600101600460008b73ffffffffffffffffffffffffffffffffffffffff1673ffffffffffffffffffffffffffffffffffffffff1681526020019081526020016000206002018b81548110612cc257fe5b9060005260206000209060070201600001600201600460008c73ffffffffffffffffffffffffffffffffffffffff1673ffffffffffffffffffffffffffffffffffffffff1681526020019081526020016000206002018c81548110612d2357fe5b9060005260206000209060070201600001600301600460008d73ffffffffffffffffffffffffffffffffffffffff1673ffffffffffffffffffffffffffffffffffffffff1681526020019081526020016000206002018d81548110612d8457fe5b906000526020600020906007020160050154600460008e73ffffffffffffffffffffffffffffffffffffffff1673ffffffffffffffffffffffffffffffffffffffff1681526020019081526020016000206002018e81548110612de357fe5b906000526020600020906007020160040160009054906101000a900460ff16600460008f73ffffffffffffffffffffffffffffffffffffffff1673ffffffffffffffffffffffffffffffffffffffff1681526020019081526020016000206002018f81548110612e4f57fe5b906000526020600020906007020160060160009054906101000a900473ffffffffffffffffffffffffffffffffffffffff16868054600181600116156101000203166002900480601f016020809104026020016040519081016040528092919081815260200182805460018160011615610100020316600290048015612f165780601f10612eeb57610100808354040283529160200191612f16565b820191906000526020600020905b815481529060010190602001808311612ef957829003601f168201915b50505050509650858054600181600116156101000203166002900480601f016020809104026020016040519081016040528092919081815260200182805460018160011615610100020316600290048015612fb25780601f10612f8757610100808354040283529160200191612fb2565b820191906000526020600020905b815481529060010190602001808311612f9557829003601f168201915b50505050509550848054600181600116156101000203166002900480601f01602080910402602001604051908101604052809291908181526020018280546001816001161561010002031660029004801561304e5780601f106130235761010080835404028352916020019161304e565b820191906000526020600020905b81548152906001019060200180831161303157829003601f168201915b50505050509450838054600181600116156101000203166002900480601f0160208091040260200160405190810160405280929190818152602001828054600181600116156101000203166002900480156130ea5780601f106130bf576101008083540402835291602001916130ea565b820191906000526020600020905b8154815290600101906020018083116130cd57829003601f168201915b50505050509350965096509650965096509650965092959891949750929550565b6060806060600360008573ffffffffffffffffffffffffffffffffffffffff1673ffffffffffffffffffffffffffffffffffffffff16815260200190815260200160002060030160009054906101000a900460ff1661316957600080fd5b600360008573ffffffffffffffffffffffffffffffffffffffff1673ffffffffffffffffffffffffffffffffffffffff168152602001908152602001600020600201600360008673ffffffffffffffffffffffffffffffffffffffff1673ffffffffffffffffffffffffffffffffffffffff168152602001908152602001600020600101600360008773ffffffffffffffffffffffffffffffffffffffff1673ffffffffffffffffffffffffffffffffffffffff168152602001908152602001600020600801828054600181600116156101000203166002900480601f0160208091040260200160405190810160405280929190818152602001828054600181600116156101000203166002900480156132c45780601f10613299576101008083540402835291602001916132c4565b820191906000526020600020905b8154815290600101906020018083116132a757829003601f168201915b50505050509250818054600181600116156101000203166002900480601f0160208091040260200160405190810160405280929190818152602001828054600181600116156101000203166002900480156133605780601f1061333557610100808354040283529160200191613360565b820191906000526020600020905b81548152906001019060200180831161334357829003601f168201915b50505050509150808054600181600116156101000203166002900480601f0160208091040260200160405190810160405280929190818152602001828054600181600116156101000203166002900480156133fc5780601f106133d1576101008083540402835291602001916133fc565b820191906000526020600020905b8154815290600101906020018083116133df57829003601f168201915b505050505090509250925092509193909250565b60008173ffffffffffffffffffffffffffffffffffffffff163373ffffffffffffffffffffffffffffffffffffffff16146134b3576040517f08c379a00000000000000000000000000000000000000000000000000000000081526004018080602001828103825260208152602001807f596f752063616e206f6e6c79207669657720796f7572206f776e20696e666f2e81525060200191505060405180910390fd5b600460008373ffffffffffffffffffffffffffffffffffffffff1673ffffffffffffffffffffffffffffffffffffffff168152602001908152602001600020600301805490509050919050565b60008060009054906101000a900473ffffffffffffffffffffffffffffffffffffffff16905090565b60008054906101000a900473ffffffffffffffffffffffffffffffffffffffff1673ffffffffffffffffffffffffffffffffffffffff163373ffffffffffffffffffffffffffffffffffffffff16146135ea576040517f08c379a00000000000000000000000000000000000000000000000000000000081526004018080602001828103825260208152602001807f4f6e6c7920636f6e7472616374206f776e65722063616e20646f20746869732e81525060200191505060405180910390fd5b6000600360008373ffffffffffffffffffffffffffffffffffffffff1673ffffffffffffffffffffffffffffffffffffffff16815260200190815260200160002060030160006101000a81548160ff02191690831515021790555050565b600060608273ffffffffffffffffffffffffffffffffffffffff163373ffffffffffffffffffffffffffffffffffffffff16146136ed576040517f08c379a00000000000000000000000000000000000000000000000000000000081526004018080602001828103825260208152602001807f596f752063616e206f6e6c79207669657720796f7572206f776e20696e666f2e81525060200191505060405180910390fd5b600360008473ffffffffffffffffffffffffffffffffffffffff1673ffffffffffffffffffffffffffffffffffffffff168152602001908152602001600020600401848154811061373a57fe5b906000526020600020906002020160000160009054906101000a900473ffffffffffffffffffffffffffffffffffffffff16600360008573ffffffffffffffffffffffffffffffffffffffff1673ffffffffffffffffffffffffffffffffffffffff16815260200190815260200160002060040185815481106137b957fe5b9060005260206000209060020201600101808054600181600116156101000203166002900480601f01602080910402602001604051908101604052809291908181526020018280546001816001161561010002031660029004801561385f5780601f106138345761010080835404028352916020019161385f565b820191906000526020600020905b81548152906001019060200180831161384257829003601f168201915b50505050509050915091509250929050565b60011515600360003373ffffffffffffffffffffffffffffffffffffffff1673ffffffffffffffffffffffffffffffffffffffff16815260200190815260200160002060030160009054906101000a900460ff161515146138d157600080fd5b60006040518060800160405280888152602001878152602001868152602001858152509050600060405180608001604052808381526020016000151581526020018481526020013373ffffffffffffffffffffffffffffffffffffffff168152509050600460008573ffffffffffffffffffffffffffffffffffffffff1673ffffffffffffffffffffffffffffffffffffffff16815260200190815260200160002060020181908060018154018082558091505060019003906000526020600020906007020160009091909190915060008201518160000160008201518160000190805190602001906139c5929190614de6565b5060208201518160010190805190602001906139e2929190614de6565b5060408201518160020190805190602001906139ff929190614de6565b506060820151816003019080519060200190613a1c929190614de6565b50505060208201518160040160006101000a81548160ff0219169083151502179055506040820151816005015560608201518160060160006101000a81548173ffffffffffffffffffffffffffffffffffffffff021916908373ffffffffffffffffffffffffffffffffffffffff1602179055505050600360003373ffffffffffffffffffffffffffffffffffffffff1673ffffffffffffffffffffffffffffffffffffffff16815260200190815260200160002060040160405180604001604052808673ffffffffffffffffffffffffffffffffffffffff16815260200189815250908060018154018082558091505060019003906000526020600020906002020160009091909190915060008201518160000160006101000a81548173ffffffffffffffffffffffffffffffffffffffff021916908373ffffffffffffffffffffffffffffffffffffffff1602179055506020820151816001019080519060200190613b8b929190614de6565b5050505050505050505050565b6060600360008373ffffffffffffffffffffffffffffffffffffffff1673ffffffffffffffffffffffffffffffffffffffff1681526020019081526020016000206006018054600181600116156101000203166002900480601f016020809104026020016040519081016040528092919081815260200182805460018160011615610100020316600290048015613c705780601f10613c4557610100808354040283529160200191613c70565b820191906000526020600020905b815481529060010190602001808311613c5357829003601f168201915b50505050509050919050565b60608060608373ffffffffffffffffffffffffffffffffffffffff163373ffffffffffffffffffffffffffffffffffffffff1614613d22576040517f08c379a00000000000000000000000000000000000000000000000000000000081526004018080602001828103825260208152602001807f596f752063616e206f6e6c79207669657720796f7572206f776e20696e666f2e81525060200191505060405180910390fd5b600460008573ffffffffffffffffffffffffffffffffffffffff1673ffffffffffffffffffffffffffffffffffffffff1681526020019081526020016000206003018581548110613d6f57fe5b9060005260206000209060030201600001600460008673ffffffffffffffffffffffffffffffffffffffff1673ffffffffffffffffffffffffffffffffffffffff1681526020019081526020016000206003018681548110613dcd57fe5b9060005260206000209060030201600101600460008773ffffffffffffffffffffffffffffffffffffffff1673ffffffffffffffffffffffffffffffffffffffff1681526020019081526020016000206003018781548110613e2b57fe5b9060005260206000209060030201600201828054600181600116156101000203166002900480601f016020809104026020016040519081016040528092919081815260200182805460018160011615610100020316600290048015613ed15780601f10613ea657610100808354040283529160200191613ed1565b820191906000526020600020905b815481529060010190602001808311613eb457829003601f168201915b50505050509250818054600181600116156101000203166002900480601f016020809104026020016040519081016040528092919081815260200182805460018160011615610100020316600290048015613f6d5780601f10613f4257610100808354040283529160200191613f6d565b820191906000526020600020905b815481529060010190602001808311613f5057829003601f168201915b50505050509150808054600181600116156101000203166002900480601f0160208091040260200160405190810160405280929190818152602001828054600181600116156101000203166002900480156140095780601f10613fde57610100808354040283529160200191614009565b820191906000526020600020905b815481529060010190602001808311613fec57829003601f168201915b505050505090509250925092509250925092565b600060608060606001858154811061403157fe5b906000526020600020906009020160000160009054906101000a900473ffffffffffffffffffffffffffffffffffffffff166001868154811061407057fe5b90600052602060002090600902016002016001878154811061408e57fe5b9060005260206000209060090201600101600188815481106140ac57fe5b9060005260206000209060090201600801828054600181600116156101000203166002900480601f0160208091040260200160405190810160405280929190818152602001828054600181600116156101000203166002900480156141525780601f1061412757610100808354040283529160200191614152565b820191906000526020600020905b81548152906001019060200180831161413557829003601f168201915b50505050509250818054600181600116156101000203166002900480601f0160208091040260200160405190810160405280929190818152602001828054600181600116156101000203166002900480156141ee5780601f106141c3576101008083540402835291602001916141ee565b820191906000526020600020905b8154815290600101906020018083116141d157829003601f168201915b50505050509150808054600181600116156101000203166002900480601f01602080910402602001604051908101604052809291908181526020018280546001816001161561010002031660029004801561428a5780601f1061425f5761010080835404028352916020019161428a565b820191906000526020600020905b81548152906001019060200180831161426d57829003601f168201915b5050505050905093509350935093509193509193565b60008054906101000a900473ffffffffffffffffffffffffffffffffffffffff1673ffffffffffffffffffffffffffffffffffffffff163373ffffffffffffffffffffffffffffffffffffffff1614614361576040517f08c379a00000000000000000000000000000000000000000000000000000000081526004018080602001828103825260208152602001807f4f6e6c7920636f6e7472616374206f776e65722063616e20646f20746869732e81525060200191505060405180910390fd5b84600360008773ffffffffffffffffffffffffffffffffffffffff1673ffffffffffffffffffffffffffffffffffffffff16815260200190815260200160002060000160006101000a81548173ffffffffffffffffffffffffffffffffffffffff021916908373ffffffffffffffffffffffffffffffffffffffff16021790555083600360008773ffffffffffffffffffffffffffffffffffffffff1673ffffffffffffffffffffffffffffffffffffffff1681526020019081526020016000206001019080519060200190614438929190614de6565b5082600360008773ffffffffffffffffffffffffffffffffffffffff1673ffffffffffffffffffffffffffffffffffffffff168152602001908152602001600020600201908051906020019061448f929190614de6565b506001600360008773ffffffffffffffffffffffffffffffffffffffff1673ffffffffffffffffffffffffffffffffffffffff16815260200190815260200160002060030160006101000a81548160ff02191690831515021790555081600360008773ffffffffffffffffffffffffffffffffffffffff1673ffffffffffffffffffffffffffffffffffffffff1681526020019081526020016000206008019080519060200190614541929190614de6565b5080600360008773ffffffffffffffffffffffffffffffffffffffff1673ffffffffffffffffffffffffffffffffffffffff1681526020019081526020016000206006019080519060200190614598929190614de6565b506001600360008773ffffffffffffffffffffffffffffffffffffffff1673ffffffffffffffffffffffffffffffffffffffff16815260200190815260200160002090806001815401808255809150506001900390600052602060002090600902016000909190919091506000820160009054906101000a900473ffffffffffffffffffffffffffffffffffffffff168160000160006101000a81548173ffffffffffffffffffffffffffffffffffffffff021916908373ffffffffffffffffffffffffffffffffffffffff16021790555060018201816001019080546001816001161561010002031660029004614691929190614e74565b50600282018160020190805460018160011615610100020316600290046146b9929190614e74565b506003820160009054906101000a900460ff168160030160006101000a81548160ff02191690831515021790555060048201816004019080546146fd929190614f09565b506005820181600501908054614714929190614ff0565b506006820181600601908054600181600116156101000203166002900461473c929190614e74565b5060078201816007019080546001816001161561010002031660029004614764929190614e74565b506008820181600801908054600181600116156101000203166002900461478c929190614e74565b5050505050505050565b81600460008573ffffffffffffffffffffffffffffffffffffffff1673ffffffffffffffffffffffffffffffffffffffff16815260200190815260200160002060020182815481106147e457fe5b906000526020600020906007020160040160006101000a81548160ff021916908315150217905550505050565b600460003373ffffffffffffffffffffffffffffffffffffffff1673ffffffffffffffffffffffffffffffffffffffff16815260200190815260200160002060070160009054906101000a900460ff1661486a57600080fd5b60006040518060600160405280878152602001868152602001858152509050600460003373ffffffffffffffffffffffffffffffffffffffff1673ffffffffffffffffffffffffffffffffffffffff1681526020019081526020016000206003018190806001815401808255809150506001900390600052602060002090600302016000909190919091506000820151816000019080519060200190614911929190614de6565b50602082015181600101908051906020019061492e929190614de6565b50604082015181600201908051906020019061494b929190614de6565b505050600060405180606001604052803373ffffffffffffffffffffffffffffffffffffffff168152602001868152602001848152509050600360008573ffffffffffffffffffffffffffffffffffffffff1673ffffffffffffffffffffffffffffffffffffffff16815260200190815260200160002060050181908060018154018082558091505060019003906000526020600020906003020160009091909190915060008201518160000160006101000a81548173ffffffffffffffffffffffffffffffffffffffff021916908373ffffffffffffffffffffffffffffffffffffffff1602179055506020820151816001019080519060200190614a52929190614de6565b506040820151816002019080519060200190614a6f929190614de6565b50505050505050505050565b60008173ffffffffffffffffffffffffffffffffffffffff163373ffffffffffffffffffffffffffffffffffffffff1614614b1e576040517f08c379a00000000000000000000000000000000000000000000000000000000081526004018080602001828103825260208152602001807f596f752063616e206f6e6c79207669657720796f7572206f776e20696e666f2e81525060200191505060405180910390fd5b600360008373ffffffffffffffffffffffffffffffffffffffff1673ffffffffffffffffffffffffffffffffffffffff168152602001908152602001600020600401805490509050919050565b60008173ffffffffffffffffffffffffffffffffffffffff163373ffffffffffffffffffffffffffffffffffffffff1614614ba557600080fd5b600460008373ffffffffffffffffffffffffffffffffffffffff1673ffffffffffffffffffffffffffffffffffffffff168152602001908152602001600020600201805490509050919050565b83600460008673ffffffffffffffffffffffffffffffffffffffff1673ffffffffffffffffffffffffffffffffffffffff16815260200190815260200160002060000160006101000a81548173ffffffffffffffffffffffffffffffffffffffff021916908373ffffffffffffffffffffffffffffffffffffffff16021790555082600460008673ffffffffffffffffffffffffffffffffffffffff1673ffffffffffffffffffffffffffffffffffffffff1681526020019081526020016000206006019080519060200190614cc9929190614de6565b5081600460008673ffffffffffffffffffffffffffffffffffffffff1673ffffffffffffffffffffffffffffffffffffffff1681526020019081526020016000206004019080519060200190614d20929190614de6565b5080600460008673ffffffffffffffffffffffffffffffffffffffff1673ffffffffffffffffffffffffffffffffffffffff1681526020019081526020016000206005019080519060200190614d77929190614de6565b506001600460008673ffffffffffffffffffffffffffffffffffffffff1673ffffffffffffffffffffffffffffffffffffffff16815260200190815260200160002060070160006101000a81548160ff02191690831515021790555050505050565b6000600180549050905090565b828054600181600116156101000203166002900490600052602060002090601f016020900481019282614e1c5760008555614e63565b82601f10614e3557805160ff1916838001178555614e63565b82800160010185558215614e63579182015b82811115614e62578251825591602001919060010190614e47565b5b509050614e7091906150ff565b5090565b828054600181600116156101000203166002900490600052602060002090601f016020900481019282614eaa5760008555614ef8565b82601f10614ebb5780548555614ef8565b82800160010185558215614ef857600052602060002091601f016020900482015b82811115614ef7578254825591600101919060010190614edc565b5b509050614f0591906150ff565b5090565b828054828255906000526020600020906002028101928215614fdf5760005260206000209160020282015b82811115614fde5782826000820160009054906101000a900473ffffffffffffffffffffffffffffffffffffffff168160000160006101000a81548173ffffffffffffffffffffffffffffffffffffffff021916908373ffffffffffffffffffffffffffffffffffffffff16021790555060018201816001019080546001816001161561010002031660029004614fcc929190614e74565b50505091600201919060020190614f34565b5b509050614fec919061511c565b5090565b8280548282559060005260206000209060030281019282156150ee5760005260206000209160030282015b828111156150ed5782826000820160009054906101000a900473ffffffffffffffffffffffffffffffffffffffff168160000160006101000a81548173ffffffffffffffffffffffffffffffffffffffff021916908373ffffffffffffffffffffffffffffffffffffffff160217905550600182018160010190805460018160011615610100020316600290046150b3929190614e74565b50600282018160020190805460018160011615610100020316600290046150db929190614e74565b5050509160030191906003019061501b565b5b5090506150fb919061516a565b5090565b5b80821115615118576000816000905550600101615100565b5090565b5b8082111561516657600080820160006101000a81549073ffffffffffffffffffffffffffffffffffffffff021916905560018201600061515d91906151c8565b5060020161511d565b5090565b5b808211156151c457600080820160006101000a81549073ffffffffffffffffffffffffffffffffffffffff02191690556001820160006151ab91906151c8565b6002820160006151bb91906151c8565b5060030161516b565b5090565b50805460018160011615610100020316600290046000825580601f106151ee575061520d565b601f01602090049060005260206000209081019061520c91906150ff565b5b5056fea26469706673582212207b04ba28bf8ad5c2f784385d35c80de17100889f28d490e21e1c75793d59754264736f6c63430007060033",
  "immutableReferences": {},
  "source": "// SPDX-License-Identifier: GPL-3.0\r\npragma solidity >=0.7.0 <=0.8.3;\r\n\r\ncontract HealthRecord{\r\n    \r\n    address private contractOwner;\r\n    \r\n    struct UserResult{\r\n        string testResult;\r\n        string date;\r\n        string placeName;\r\n        string location;\r\n    }\r\n    \r\n    struct PendingTransaction{\r\n        UserResult result;\r\n        bool paid;\r\n        uint256 amount;\r\n        address payableTo;\r\n        \r\n    }\r\n\r\n    \r\n    struct AppointmentListUser{\r\n        string provName;\r\n        string provLocation;\r\n        string date;\r\n    }\r\n    \r\n    struct AppointmentListProvider{\r\n        address patient;\r\n        string date;\r\n        string encryptedUserInfo;\r\n    }\r\n    \r\n    \r\n    struct History{\r\n        address patientAddress;\r\n        string date;\r\n    }\r\n    \r\n    \r\n    struct ProviderUser{\r\n        address userAddress;\r\n        string location;\r\n        string placeName;\r\n        bool isActive;\r\n        History[] historyList;\r\n        AppointmentListProvider[] appointmentList;\r\n        string encryptedLogin;\r\n        string encryptedInfo;\r\n        string publicKey;\r\n        \r\n    }\r\n    \r\n    struct User{\r\n        address userAddress;\r\n        UserResult[] results;\r\n        PendingTransaction[] pendingResult;\r\n        AppointmentListUser[] appointmentList;\r\n        string encryptedLogin;\r\n        string encryptedInfo;\r\n        string publicKey;\r\n        bool isActive;\r\n    }\r\n    \r\n    \r\n    ProviderUser[] private hospitalList; // just a list \r\n    mapping (string => string) private loginInfo;\r\n    mapping (address => ProviderUser) private provider;\r\n    mapping (address  => User) private users; // maybe change to private\r\n    \r\n    \r\n    constructor (){\r\n        contractOwner = msg.sender;\r\n    }\r\n    \r\n    event Loggin(address sender_, bool isActive);\r\n    \r\n    function putLoginInfo(string memory passHash_, string memory infoHash_) public{\r\n        loginInfo[passHash_] = infoHash_;\r\n    }\r\n    \r\n    \r\n    function getLoginInfo(string memory hash_) public view returns(string memory){\r\n        return(loginInfo[hash_]);   \r\n    }\r\n    \r\n    \r\n    //add users\r\n    function registerUser(address user_, string memory pKey,  string memory encryptedLogin_, string memory encryptedInfo_) public{\r\n       // require(msg.sender == user_);\r\n        users[user_].userAddress = user_;\r\n        users[user_].publicKey = pKey;\r\n        users[user_].encryptedLogin = encryptedLogin_;\r\n        users[user_].encryptedInfo = encryptedInfo_;\r\n        users[user_].isActive = true;\r\n            }\r\n    \r\n    function getUserEncrypted(address user_) public view returns(string memory, string memory){\r\n        \r\n        return(\r\n            users[user_].encryptedLogin,\r\n            users[user_].encryptedInfo);\r\n    }\r\n    \r\n    function getUserPublicKey(address user_) public view returns(string memory){\r\n        return(users[user_].publicKey);\r\n    }\r\n    \r\n    function getProviderPublicKey(address user_) public view returns(string memory){\r\n        return(provider[user_].publicKey);\r\n    }\r\n    \r\n    function userMakeAppointment(string memory venue_, string memory location_, string memory date_, address provider_, string memory encryptedUserInfo_) public{\r\n        require(users[msg.sender].isActive);\r\n        AppointmentListUser memory appoint_ = AppointmentListUser(venue_, location_, date_);\r\n        users[msg.sender].appointmentList.push(appoint_);\r\n        AppointmentListProvider memory appointProv_ = AppointmentListProvider(msg.sender, date_, encryptedUserInfo_);\r\n        provider[provider_].appointmentList.push(appointProv_);\r\n        \r\n    }\r\n    \r\n    function getUserAppointmentList(uint count_, address users_) public view returns (string memory, string memory, string memory){\r\n        require(msg.sender == users_, \"You can only view your own info.\");\r\n        return(\r\n            users[users_].appointmentList[count_].provName,\r\n            users[users_].appointmentList[count_].provLocation,\r\n            users[users_].appointmentList[count_].date\r\n            );\r\n    }\r\n    \r\n    function getProviderAppointmentList(uint count_, address provider_) public view returns(address, string memory, string memory){\r\n        require(msg.sender == provider_,  \"You can only view your own info.\");\r\n        return(\r\n            provider[provider_].appointmentList[count_].patient,\r\n            provider[provider_].appointmentList[count_].date,\r\n            provider[provider_].appointmentList[count_].encryptedUserInfo\r\n            \r\n            );\r\n    }\r\n    \r\n    \r\n    function getUserAppointmentListLength(address users_) public view returns(uint256){\r\n        require(msg.sender == users_, \"You can only view your own info.\");\r\n        return(\r\n            users[users_].appointmentList.length\r\n            );\r\n        \r\n    }\r\n    \r\n    function getProviderAppointmentListLength(address provider_) public view returns(uint256){\r\n        require(msg.sender == provider_, \"You can only view your own info.\");\r\n        return(\r\n            provider[provider_].appointmentList.length\r\n            );\r\n    }\r\n    \r\n    \r\n    function getProviderHistoryList(uint256 count_, address provider_) public view returns(address , string memory){\r\n        require(msg.sender == provider_, \"You can only view your own info.\");\r\n        return(\r\n            provider[provider_].historyList[count_].patientAddress,\r\n            provider[provider_].historyList[count_].date\r\n            );\r\n    }\r\n    \r\n    function getProviderHistoryListLength(address provider_) public view returns(uint256){\r\n        require(msg.sender == provider_, \"You can only view your own info.\");\r\n        return(\r\n            provider[provider_].historyList.length\r\n            );\r\n    }\r\n    \r\n    \r\n    function registerKiosk(address kiosk_, string memory location_, string memory name_, string memory pKey, string memory encryptedLogin_) public{\r\n        require(msg.sender == contractOwner, \"Only contract owner can do this.\");\r\n        provider[kiosk_].userAddress = kiosk_;\r\n        provider[kiosk_].location = location_;\r\n        provider[kiosk_].placeName = name_;\r\n        provider[kiosk_].isActive = true;\r\n        provider[kiosk_].encryptedLogin = encryptedLogin_;\r\n        provider[kiosk_].publicKey = pKey;\r\n    }\r\n    \r\n    function registerHospital(address hospital_, string memory location_, string memory name_, string memory pKey, string memory encryptedLogin_) public{\r\n        require(msg.sender == contractOwner, \"Only contract owner can do this.\");\r\n        provider[hospital_].userAddress = hospital_;\r\n        provider[hospital_].location = location_;\r\n        provider[hospital_].placeName = name_;  \r\n        provider[hospital_].isActive = true;\r\n        provider[hospital_].publicKey = pKey;\r\n        provider[hospital_].encryptedLogin = encryptedLogin_;\r\n        hospitalList.push(provider[hospital_]);\r\n    }\r\n    \r\n    function getProviderEncryptedLogin(address provider_) public view returns(string memory){\r\n        return(\r\n            provider[provider_].encryptedLogin\r\n            );\r\n    }\r\n    \r\n    \r\n    function disableProvider(address provider_) public{\r\n        require(msg.sender == contractOwner, \"Only contract owner can do this.\");\r\n        provider[provider_].isActive = false;\r\n    }\r\n  \r\n    \r\n    function getProviderInfo(address provider_) public view returns(string memory, string memory, string memory){\r\n        require(provider[provider_].isActive);\r\n        return(\r\n            provider[provider_].placeName,\r\n            provider[provider_].location,\r\n            provider[provider_].publicKey\r\n            );\r\n        \r\n    }\r\n\r\n    \r\n    //add transaction \r\n    function addPendingHealthRecord(string memory testResult_, string memory date_, string memory placeName_ ,string memory place_ , address endUser, uint256 amount_) public{\r\n        require(provider[msg.sender].isActive == true );\r\n        UserResult memory resultData = UserResult(testResult_, date_, placeName_, place_);\r\n        PendingTransaction memory pendingResult_ = PendingTransaction(resultData, false, amount_, msg.sender);\r\n        users[endUser].pendingResult.push(pendingResult_);\r\n        provider[msg.sender].historyList.push(History(endUser, date_));\r\n        \r\n\r\n    }\r\n    \r\n    function updatePendingHealthRecord(address user_, bool paidStatus_, uint256 count_ ) public{\r\n        users[user_].pendingResult[count_].paid = paidStatus_;\r\n    }\r\n    \r\n    //get record as user\r\n    function getPendingHealthRecord(uint count_, address user_) public view returns(string memory, string memory,string memory, string memory, uint256, bool, address  ){\r\n        require(msg.sender == user_);\r\n        return (users[user_].pendingResult[count_].result.testResult, \r\n                users[user_].pendingResult[count_].result.date , \r\n                users[user_].pendingResult[count_].result.placeName,\r\n                users[user_].pendingResult[count_].result.location,\r\n                users[user_].pendingResult[count_].amount,\r\n                users[user_].pendingResult[count_].paid,\r\n                users[user_].pendingResult[count_].payableTo\r\n                \r\n        );\r\n    }\r\n    \r\n    \r\n    function getPendingHealthRecordLength (address user_) public view returns (uint256){\r\n        require(msg.sender == user_);\r\n        return(users[user_].pendingResult.length);\r\n    }\r\n    \r\n    function getHospitalListLength() public view returns(uint256){\r\n        \r\n        return(\r\n            hospitalList.length\r\n            );\r\n    }\r\n    \r\n    function getHospitalList(uint256 count_) public view returns(address, string memory, string memory, string memory){\r\n        \r\n        return(\r\n            hospitalList[count_].userAddress,\r\n            hospitalList[count_].placeName,\r\n            hospitalList[count_].location,\r\n            hospitalList[count_].publicKey\r\n            );\r\n    }\r\n    \r\n    \r\n     function getOwner() public view returns(address){\r\n        return(contractOwner);\r\n    }    \r\n    \r\n    \r\n    \r\n}",
  "sourcePath": "D:/Wen/Uni_stuff/year_4/FYP/fyp-blockchain/contracts/HealthRecord.sol",
  "compiler": {
    "name": "solc",
    "version": "0.7.6+commit.7338295f.Emscripten.clang"
  },
  "schemaVersion": "3.3.4",
  "updatedAt": "2021-04-18T14:53:10.127Z",
  "networkType": "ethereum",
  "devdoc": {
    "kind": "dev",
    "methods": {},
    "version": 1
  },
  "userdoc": {
    "kind": "user",
    "methods": {},
    "version": 1
  }
}