{
  "contractName": "HealthRecord",
  "abi": [
    {
      "inputs": [],
      "stateMutability": "nonpayable",
      "type": "constructor"
    },
    {
      "inputs": [
        {
          "internalType": "address",
          "name": "user_",
          "type": "address"
        }
      ],
      "name": "registerUser",
      "outputs": [],
      "stateMutability": "nonpayable",
      "type": "function"
    },
    {
      "inputs": [
        {
          "internalType": "string",
          "name": "venue_",
          "type": "string"
        },
        {
          "internalType": "string",
          "name": "location_",
          "type": "string"
        },
        {
          "internalType": "string",
          "name": "date_",
          "type": "string"
        },
        {
          "internalType": "address",
          "name": "provider_",
          "type": "address"
        },
        {
          "internalType": "string",
          "name": "encryptedUserInfo_",
          "type": "string"
        }
      ],
      "name": "userMakeAppointment",
      "outputs": [],
      "stateMutability": "nonpayable",
      "type": "function"
    },
    {
      "inputs": [
        {
          "internalType": "uint256",
          "name": "count_",
          "type": "uint256"
        },
        {
          "internalType": "address",
          "name": "users_",
          "type": "address"
        }
      ],
      "name": "getUserAppointmentList",
      "outputs": [
        {
          "internalType": "string",
          "name": "",
          "type": "string"
        },
        {
          "internalType": "string",
          "name": "",
          "type": "string"
        },
        {
          "internalType": "string",
          "name": "",
          "type": "string"
        }
      ],
      "stateMutability": "view",
      "type": "function",
      "constant": true
    },
    {
      "inputs": [
        {
          "internalType": "uint256",
          "name": "count_",
          "type": "uint256"
        },
        {
          "internalType": "address",
          "name": "provider_",
          "type": "address"
        }
      ],
      "name": "getProviderAppointmentList",
      "outputs": [
        {
          "internalType": "address",
          "name": "",
          "type": "address"
        },
        {
          "internalType": "string",
          "name": "",
          "type": "string"
        },
        {
          "internalType": "string",
          "name": "",
          "type": "string"
        }
      ],
      "stateMutability": "view",
      "type": "function",
      "constant": true
    },
    {
      "inputs": [
        {
          "internalType": "address",
          "name": "users_",
          "type": "address"
        }
      ],
      "name": "getUserAppointmentListLength",
      "outputs": [
        {
          "internalType": "uint256",
          "name": "",
          "type": "uint256"
        }
      ],
      "stateMutability": "view",
      "type": "function",
      "constant": true
    },
    {
      "inputs": [
        {
          "internalType": "address",
          "name": "provider_",
          "type": "address"
        }
      ],
      "name": "getProviderAppointmentListLength",
      "outputs": [
        {
          "internalType": "uint256",
          "name": "",
          "type": "uint256"
        }
      ],
      "stateMutability": "view",
      "type": "function",
      "constant": true
    },
    {
      "inputs": [
        {
          "internalType": "uint256",
          "name": "count_",
          "type": "uint256"
        },
        {
          "internalType": "address",
          "name": "provider_",
          "type": "address"
        }
      ],
      "name": "getProviderHistoryList",
      "outputs": [
        {
          "internalType": "address",
          "name": "",
          "type": "address"
        },
        {
          "internalType": "string",
          "name": "",
          "type": "string"
        }
      ],
      "stateMutability": "view",
      "type": "function",
      "constant": true
    },
    {
      "inputs": [
        {
          "internalType": "address",
          "name": "provider_",
          "type": "address"
        }
      ],
      "name": "getProviderHistoryListLength",
      "outputs": [
        {
          "internalType": "uint256",
          "name": "",
          "type": "uint256"
        }
      ],
      "stateMutability": "view",
      "type": "function",
      "constant": true
    },
    {
      "inputs": [
        {
          "internalType": "address",
          "name": "kiosk_",
          "type": "address"
        },
        {
          "internalType": "string",
          "name": "location_",
          "type": "string"
        },
        {
          "internalType": "string",
          "name": "name_",
          "type": "string"
        }
      ],
      "name": "registerKiosk",
      "outputs": [],
      "stateMutability": "nonpayable",
      "type": "function"
    },
    {
      "inputs": [
        {
          "internalType": "address",
          "name": "hospital_",
          "type": "address"
        },
        {
          "internalType": "string",
          "name": "location_",
          "type": "string"
        },
        {
          "internalType": "string",
          "name": "name_",
          "type": "string"
        }
      ],
      "name": "registerHospital",
      "outputs": [],
      "stateMutability": "nonpayable",
      "type": "function"
    },
    {
      "inputs": [
        {
          "internalType": "address",
          "name": "provider_",
          "type": "address"
        }
      ],
      "name": "disableProvider",
      "outputs": [],
      "stateMutability": "nonpayable",
      "type": "function"
    },
    {
      "inputs": [
        {
          "internalType": "address",
          "name": "provider_",
          "type": "address"
        }
      ],
      "name": "getProviderInfo",
      "outputs": [
        {
          "internalType": "string",
          "name": "",
          "type": "string"
        },
        {
          "internalType": "string",
          "name": "",
          "type": "string"
        }
      ],
      "stateMutability": "view",
      "type": "function",
      "constant": true
    },
    {
      "inputs": [
        {
          "internalType": "uint256",
          "name": "count_",
          "type": "uint256"
        },
        {
          "internalType": "address",
          "name": "user_",
          "type": "address"
        }
      ],
      "name": "getHealthRecord",
      "outputs": [
        {
          "internalType": "string",
          "name": "",
          "type": "string"
        },
        {
          "internalType": "string",
          "name": "",
          "type": "string"
        }
      ],
      "stateMutability": "view",
      "type": "function",
      "constant": true
    },
    {
      "inputs": [
        {
          "internalType": "string",
          "name": "testResult_",
          "type": "string"
        },
        {
          "internalType": "string",
          "name": "date_",
          "type": "string"
        },
        {
          "internalType": "string",
          "name": "placeName_",
          "type": "string"
        },
        {
          "internalType": "string",
          "name": "place_",
          "type": "string"
        },
        {
          "internalType": "address",
          "name": "endUser",
          "type": "address"
        },
        {
          "internalType": "uint256",
          "name": "amount_",
          "type": "uint256"
        }
      ],
      "name": "addPendingHealthRecord",
      "outputs": [],
      "stateMutability": "nonpayable",
      "type": "function"
    },
    {
      "inputs": [
        {
          "internalType": "address",
          "name": "user_",
          "type": "address"
        },
        {
          "internalType": "bool",
          "name": "paidStatus_",
          "type": "bool"
        },
        {
          "internalType": "uint256",
          "name": "count_",
          "type": "uint256"
        }
      ],
      "name": "updatePendingHealthRecord",
      "outputs": [],
      "stateMutability": "nonpayable",
      "type": "function"
    },
    {
      "inputs": [
        {
          "internalType": "uint256",
          "name": "count_",
          "type": "uint256"
        },
        {
          "internalType": "address",
          "name": "user_",
          "type": "address"
        }
      ],
      "name": "getPendingHealthRecord",
      "outputs": [
        {
          "internalType": "string",
          "name": "",
          "type": "string"
        },
        {
          "internalType": "string",
          "name": "",
          "type": "string"
        },
        {
          "internalType": "string",
          "name": "",
          "type": "string"
        },
        {
          "internalType": "string",
          "name": "",
          "type": "string"
        },
        {
          "internalType": "uint256",
          "name": "",
          "type": "uint256"
        },
        {
          "internalType": "bool",
          "name": "",
          "type": "bool"
        },
        {
          "internalType": "address",
          "name": "",
          "type": "address"
        }
      ],
      "stateMutability": "view",
      "type": "function",
      "constant": true
    },
    {
      "inputs": [
        {
          "internalType": "address",
          "name": "user_",
          "type": "address"
        }
      ],
      "name": "getPendingHealthRecordLength",
      "outputs": [
        {
          "internalType": "uint256",
          "name": "",
          "type": "uint256"
        }
      ],
      "stateMutability": "view",
      "type": "function",
      "constant": true
    },
    {
      "inputs": [],
      "name": "getHospitalListLength",
      "outputs": [
        {
          "internalType": "uint256",
          "name": "",
          "type": "uint256"
        }
      ],
      "stateMutability": "view",
      "type": "function",
      "constant": true
    },
    {
      "inputs": [
        {
          "internalType": "uint256",
          "name": "count_",
          "type": "uint256"
        }
      ],
      "name": "getHospitalList",
      "outputs": [
        {
          "internalType": "address",
          "name": "",
          "type": "address"
        },
        {
          "internalType": "string",
          "name": "",
          "type": "string"
        },
        {
          "internalType": "string",
          "name": "",
          "type": "string"
        }
      ],
      "stateMutability": "view",
      "type": "function",
      "constant": true
    }
  ],
  "bytecode": "0x608060405234801561001057600080fd5b50336000806101000a81548173ffffffffffffffffffffffffffffffffffffffff021916908373ffffffffffffffffffffffffffffffffffffffff160217905550613e84806100606000396000f3fe608060405234801561001057600080fd5b50600436106100f15760003560e01c806313f7c462146100f65780632199d5cd14610246578063427c38681461028a57806349d41e83146103bd5780636b5dd33f1461052f5780637125b6f1146105875780637583902f146107bf5780637b746864146108e857806385cef0b514610a5a5780638dc2fe9814610ab257806393125b9d14610af65780639a4a9b6814610bda578063b0518f4c14610e84578063d64469c514611023578063eb38db1214611153578063ef18b520146111ad578063f409eb461461144d578063f559b2b2146114a5578063fe750617146114fd575b600080fd5b6101426004803603604081101561010c57600080fd5b8101908080359060200190929190803573ffffffffffffffffffffffffffffffffffffffff16906020019092919050505061151b565b604051808473ffffffffffffffffffffffffffffffffffffffff1681526020018060200180602001838103835285818151815260200191508051906020019080838360005b838110156101a2578082015181840152602081019050610187565b50505050905090810190601f1680156101cf5780820380516001836020036101000a031916815260200191505b50838103825284818151815260200191508051906020019080838360005b838110156102085780820151818401526020810190506101ed565b50505050905090810190601f1680156102355780820380516001836020036101000a031916815260200191505b509550505050505060405180910390f35b6102886004803603602081101561025c57600080fd5b81019080803573ffffffffffffffffffffffffffffffffffffffff169060200190929190505050611841565b005b6102d6600480360360408110156102a057600080fd5b8101908080359060200190929190803573ffffffffffffffffffffffffffffffffffffffff169060200190929190505050611920565b604051808060200180602001838103835285818151815260200191508051906020019080838360005b8381101561031a5780820151818401526020810190506102ff565b50505050905090810190601f1680156103475780820380516001836020036101000a031916815260200191505b50838103825284818151815260200191508051906020019080838360005b83811015610380578082015181840152602081019050610365565b50505050905090810190601f1680156103ad5780820380516001836020036101000a031916815260200191505b5094505050505060405180910390f35b61052d600480360360608110156103d357600080fd5b81019080803573ffffffffffffffffffffffffffffffffffffffff1690602001909291908035906020019064010000000081111561041057600080fd5b82018360208201111561042257600080fd5b8035906020019184600183028401116401000000008311171561044457600080fd5b91908080601f016020809104026020016040519081016040528093929190818152602001838380828437600081840152601f19601f820116905080830192505050505050509192919290803590602001906401000000008111156104a757600080fd5b8201836020820111156104b957600080fd5b803590602001918460018302840111640100000000831117156104db57600080fd5b91908080601f016020809104026020016040519081016040528093929190818152602001838380828437600081840152601f19601f820116905080830192505050505050509192919290505050611b28565b005b6105716004803603602081101561054557600080fd5b81019080803573ffffffffffffffffffffffffffffffffffffffff169060200190929190505050611ef6565b6040518082815260200191505060405180910390f35b6105d36004803603604081101561059d57600080fd5b8101908080359060200190929190803573ffffffffffffffffffffffffffffffffffffffff169060200190929190505050611fe6565b604051808060200180602001806020018060200188815260200187151581526020018673ffffffffffffffffffffffffffffffffffffffff16815260200185810385528c818151815260200191508051906020019080838360005b8381101561064957808201518184015260208101905061062e565b50505050905090810190601f1680156106765780820380516001836020036101000a031916815260200191505b5085810384528b818151815260200191508051906020019080838360005b838110156106af578082015181840152602081019050610694565b50505050905090810190601f1680156106dc5780820380516001836020036101000a031916815260200191505b5085810383528a818151815260200191508051906020019080838360005b838110156107155780820151818401526020810190506106fa565b50505050905090810190601f1680156107425780820380516001836020036101000a031916815260200191505b50858103825289818151815260200191508051906020019080838360005b8381101561077b578082015181840152602081019050610760565b50505050905090810190601f1680156107a85780820380516001836020036101000a031916815260200191505b509b50505050505050505050505060405180910390f35b610801600480360360208110156107d557600080fd5b81019080803573ffffffffffffffffffffffffffffffffffffffff169060200190929190505050612581565b604051808060200180602001838103835285818151815260200191508051906020019080838360005b8381101561084557808201518184015260208101905061082a565b50505050905090810190601f1680156108725780820380516001836020036101000a031916815260200191505b50838103825284818151815260200191508051906020019080838360005b838110156108ab578082015181840152602081019050610890565b50505050905090810190601f1680156108d85780820380516001836020036101000a031916815260200191505b5094505050505060405180910390f35b610a58600480360360608110156108fe57600080fd5b81019080803573ffffffffffffffffffffffffffffffffffffffff1690602001909291908035906020019064010000000081111561093b57600080fd5b82018360208201111561094d57600080fd5b8035906020019184600183028401116401000000008311171561096f57600080fd5b91908080601f016020809104026020016040519081016040528093929190818152602001838380828437600081840152601f19601f820116905080830192505050505050509192919290803590602001906401000000008111156109d257600080fd5b8201836020820111156109e457600080fd5b80359060200191846001830284011164010000000083111715610a0657600080fd5b91908080601f016020809104026020016040519081016040528093929190818152602001838380828437600081840152601f19601f8201169050808301925050505050505091929192905050506127a2565b005b610a9c60048036036020811015610a7057600080fd5b81019080803573ffffffffffffffffffffffffffffffffffffffff1690602001909291905050506129f2565b6040518082815260200191505060405180910390f35b610af460048036036020811015610ac857600080fd5b81019080803573ffffffffffffffffffffffffffffffffffffffff169060200190929190505050612ae2565b005b610b4260048036036040811015610b0c57600080fd5b8101908080359060200190929190803573ffffffffffffffffffffffffffffffffffffffff169060200190929190505050612c01565b604051808373ffffffffffffffffffffffffffffffffffffffff16815260200180602001828103825283818151815260200191508051906020019080838360005b83811015610b9e578082015181840152602081019050610b83565b50505050905090810190601f168015610bcb5780820380516001836020036101000a031916815260200191505b50935050505060405180910390f35b610e82600480360360c0811015610bf057600080fd5b8101908080359060200190640100000000811115610c0d57600080fd5b820183602082011115610c1f57600080fd5b80359060200191846001830284011164010000000083111715610c4157600080fd5b91908080601f016020809104026020016040519081016040528093929190818152602001838380828437600081840152601f19601f82011690508083019250505050505050919291929080359060200190640100000000811115610ca457600080fd5b820183602082011115610cb657600080fd5b80359060200191846001830284011164010000000083111715610cd857600080fd5b91908080601f016020809104026020016040519081016040528093929190818152602001838380828437600081840152601f19601f82011690508083019250505050505050919291929080359060200190640100000000811115610d3b57600080fd5b820183602082011115610d4d57600080fd5b80359060200191846001830284011164010000000083111715610d6f57600080fd5b91908080601f016020809104026020016040519081016040528093929190818152602001838380828437600081840152601f19601f82011690508083019250505050505050919291929080359060200190640100000000811115610dd257600080fd5b820183602082011115610de457600080fd5b80359060200191846001830284011164010000000083111715610e0657600080fd5b91908080601f016020809104026020016040519081016040528093929190818152602001838380828437600081840152601f19601f820116905080830192505050505050509192919290803573ffffffffffffffffffffffffffffffffffffffff16906020019092919080359060200190929190505050612e2a565b005b610ed060048036036040811015610e9a57600080fd5b8101908080359060200190929190803573ffffffffffffffffffffffffffffffffffffffff169060200190929190505050613055565b60405180806020018060200180602001848103845287818151815260200191508051906020019080838360005b83811015610f18578082015181840152602081019050610efd565b50505050905090810190601f168015610f455780820380516001836020036101000a031916815260200191505b50848103835286818151815260200191508051906020019080838360005b83811015610f7e578082015181840152602081019050610f63565b50505050905090810190601f168015610fab5780820380516001836020036101000a031916815260200191505b50848103825285818151815260200191508051906020019080838360005b83811015610fe4578082015181840152602081019050610fc9565b50505050905090810190601f1680156110115780820380516001836020036101000a031916815260200191505b50965050505050505060405180910390f35b61104f6004803603602081101561103957600080fd5b81019080803590602001909291905050506133f6565b604051808473ffffffffffffffffffffffffffffffffffffffff1681526020018060200180602001838103835285818151815260200191508051906020019080838360005b838110156110af578082015181840152602081019050611094565b50505050905090810190601f1680156110dc5780820380516001836020036101000a031916815260200191505b50838103825284818151815260200191508051906020019080838360005b838110156111155780820151818401526020810190506110fa565b50505050905090810190601f1680156111425780820380516001836020036101000a031916815260200191505b509550505050505060405180910390f35b6111ab6004803603606081101561116957600080fd5b81019080803573ffffffffffffffffffffffffffffffffffffffff169060200190929190803515159060200190929190803590602001909291905050506135bb565b005b61144b600480360360a08110156111c357600080fd5b81019080803590602001906401000000008111156111e057600080fd5b8201836020820111156111f257600080fd5b8035906020019184600183028401116401000000008311171561121457600080fd5b91908080601f016020809104026020016040519081016040528093929190818152602001838380828437600081840152601f19601f8201169050808301925050505050505091929192908035906020019064010000000081111561127757600080fd5b82018360208201111561128957600080fd5b803590602001918460018302840111640100000000831117156112ab57600080fd5b91908080601f016020809104026020016040519081016040528093929190818152602001838380828437600081840152601f19601f8201169050808301925050505050505091929192908035906020019064010000000081111561130e57600080fd5b82018360208201111561132057600080fd5b8035906020019184600183028401116401000000008311171561134257600080fd5b91908080601f016020809104026020016040519081016040528093929190818152602001838380828437600081840152601f19601f820116905080830192505050505050509192919290803573ffffffffffffffffffffffffffffffffffffffff169060200190929190803590602001906401000000008111156113c557600080fd5b8201836020820111156113d757600080fd5b803590602001918460018302840111640100000000831117156113f957600080fd5b91908080601f016020809104026020016040519081016040528093929190818152602001838380828437600081840152601f19601f820116905080830192505050505050509192919290505050613636565b005b61148f6004803603602081101561146357600080fd5b81019080803573ffffffffffffffffffffffffffffffffffffffff1690602001909291905050506138a0565b6040518082815260200191505060405180910390f35b6114e7600480360360208110156114bb57600080fd5b81019080803573ffffffffffffffffffffffffffffffffffffffff169060200190929190505050613990565b6040518082815260200191505060405180910390f35b611505613a17565b6040518082815260200191505060405180910390f35b60006060808373ffffffffffffffffffffffffffffffffffffffff163373ffffffffffffffffffffffffffffffffffffffff16146115c1576040517f08c379a00000000000000000000000000000000000000000000000000000000081526004018080602001828103825260208152602001807f596f752063616e206f6e6c79207669657720796f7572206f776e20696e666f2e81525060200191505060405180910390fd5b600260008573ffffffffffffffffffffffffffffffffffffffff1673ffffffffffffffffffffffffffffffffffffffff168152602001908152602001600020600501858154811061160e57fe5b906000526020600020906003020160000160009054906101000a900473ffffffffffffffffffffffffffffffffffffffff16600260008673ffffffffffffffffffffffffffffffffffffffff1673ffffffffffffffffffffffffffffffffffffffff168152602001908152602001600020600501868154811061168d57fe5b9060005260206000209060030201600101600260008773ffffffffffffffffffffffffffffffffffffffff1673ffffffffffffffffffffffffffffffffffffffff16815260200190815260200160002060050187815481106116eb57fe5b9060005260206000209060030201600201818054600181600116156101000203166002900480601f0160208091040260200160405190810160405280929190818152602001828054600181600116156101000203166002900480156117915780601f1061176657610100808354040283529160200191611791565b820191906000526020600020905b81548152906001019060200180831161177457829003601f168201915b50505050509150808054600181600116156101000203166002900480601f01602080910402602001604051908101604052809291908181526020018280546001816001161561010002031660029004801561182d5780601f106118025761010080835404028352916020019161182d565b820191906000526020600020905b81548152906001019060200180831161181057829003601f168201915b505050505090509250925092509250925092565b80600360008373ffffffffffffffffffffffffffffffffffffffff1673ffffffffffffffffffffffffffffffffffffffff16815260200190815260200160002060000160006101000a81548173ffffffffffffffffffffffffffffffffffffffff021916908373ffffffffffffffffffffffffffffffffffffffff1602179055506001600360008373ffffffffffffffffffffffffffffffffffffffff1673ffffffffffffffffffffffffffffffffffffffff16815260200190815260200160002060040160006101000a81548160ff02191690831515021790555050565b606080600360008473ffffffffffffffffffffffffffffffffffffffff1673ffffffffffffffffffffffffffffffffffffffff168152602001908152602001600020600201848154811061197057fe5b9060005260206000209060070201600001600001600360008573ffffffffffffffffffffffffffffffffffffffff1673ffffffffffffffffffffffffffffffffffffffff16815260200190815260200160002060020185815481106119d157fe5b9060005260206000209060070201600001600301818054600181600116156101000203166002900480601f016020809104026020016040519081016040528092919081815260200182805460018160011615610100020316600290048015611a7a5780601f10611a4f57610100808354040283529160200191611a7a565b820191906000526020600020905b815481529060010190602001808311611a5d57829003601f168201915b50505050509150808054600181600116156101000203166002900480601f016020809104026020016040519081016040528092919081815260200182805460018160011615610100020316600290048015611b165780601f10611aeb57610100808354040283529160200191611b16565b820191906000526020600020905b815481529060010190602001808311611af957829003601f168201915b50505050509050915091509250929050565b60008054906101000a900473ffffffffffffffffffffffffffffffffffffffff1673ffffffffffffffffffffffffffffffffffffffff163373ffffffffffffffffffffffffffffffffffffffff1614611be9576040517f08c379a00000000000000000000000000000000000000000000000000000000081526004018080602001828103825260208152602001807f4f6e6c7920636f6e7472616374206f776e65722063616e20646f20746869732e81525060200191505060405180910390fd5b82600260008573ffffffffffffffffffffffffffffffffffffffff1673ffffffffffffffffffffffffffffffffffffffff16815260200190815260200160002060000160006101000a81548173ffffffffffffffffffffffffffffffffffffffff021916908373ffffffffffffffffffffffffffffffffffffffff16021790555081600260008573ffffffffffffffffffffffffffffffffffffffff1673ffffffffffffffffffffffffffffffffffffffff1681526020019081526020016000206001019080519060200190611cc0929190613a24565b5080600260008573ffffffffffffffffffffffffffffffffffffffff1673ffffffffffffffffffffffffffffffffffffffff1681526020019081526020016000206002019080519060200190611d17929190613a24565b506001600260008573ffffffffffffffffffffffffffffffffffffffff1673ffffffffffffffffffffffffffffffffffffffff16815260200190815260200160002060030160006101000a81548160ff0219169083151502179055506001600260008573ffffffffffffffffffffffffffffffffffffffff1673ffffffffffffffffffffffffffffffffffffffff16815260200190815260200160002090806001815401808255809150506001900390600052602060002090600602016000909190919091506000820160009054906101000a900473ffffffffffffffffffffffffffffffffffffffff168160000160006101000a81548173ffffffffffffffffffffffffffffffffffffffff021916908373ffffffffffffffffffffffffffffffffffffffff16021790555060018201816001019080546001816001161561010002031660029004611e6b929190613ab2565b5060028201816002019080546001816001161561010002031660029004611e93929190613ab2565b506003820160009054906101000a900460ff168160030160006101000a81548160ff0219169083151502179055506004820181600401908054611ed7929190613b47565b506005820181600501908054611eee929190613c2e565b505050505050565b60008173ffffffffffffffffffffffffffffffffffffffff163373ffffffffffffffffffffffffffffffffffffffff1614611f99576040517f08c379a00000000000000000000000000000000000000000000000000000000081526004018080602001828103825260208152602001807f596f752063616e206f6e6c79207669657720796f7572206f776e20696e666f2e81525060200191505060405180910390fd5b600260008373ffffffffffffffffffffffffffffffffffffffff1673ffffffffffffffffffffffffffffffffffffffff168152602001908152602001600020600501805490509050919050565b60608060608060008060008773ffffffffffffffffffffffffffffffffffffffff163373ffffffffffffffffffffffffffffffffffffffff161461202957600080fd5b600360008973ffffffffffffffffffffffffffffffffffffffff1673ffffffffffffffffffffffffffffffffffffffff168152602001908152602001600020600201898154811061207657fe5b9060005260206000209060070201600001600001600360008a73ffffffffffffffffffffffffffffffffffffffff1673ffffffffffffffffffffffffffffffffffffffff1681526020019081526020016000206002018a815481106120d757fe5b9060005260206000209060070201600001600101600360008b73ffffffffffffffffffffffffffffffffffffffff1673ffffffffffffffffffffffffffffffffffffffff1681526020019081526020016000206002018b8154811061213857fe5b9060005260206000209060070201600001600201600360008c73ffffffffffffffffffffffffffffffffffffffff1673ffffffffffffffffffffffffffffffffffffffff1681526020019081526020016000206002018c8154811061219957fe5b9060005260206000209060070201600001600301600360008d73ffffffffffffffffffffffffffffffffffffffff1673ffffffffffffffffffffffffffffffffffffffff1681526020019081526020016000206002018d815481106121fa57fe5b906000526020600020906007020160050154600360008e73ffffffffffffffffffffffffffffffffffffffff1673ffffffffffffffffffffffffffffffffffffffff1681526020019081526020016000206002018e8154811061225957fe5b906000526020600020906007020160040160009054906101000a900460ff16600360008f73ffffffffffffffffffffffffffffffffffffffff1673ffffffffffffffffffffffffffffffffffffffff1681526020019081526020016000206002018f815481106122c557fe5b906000526020600020906007020160060160009054906101000a900473ffffffffffffffffffffffffffffffffffffffff16868054600181600116156101000203166002900480601f01602080910402602001604051908101604052809291908181526020018280546001816001161561010002031660029004801561238c5780601f106123615761010080835404028352916020019161238c565b820191906000526020600020905b81548152906001019060200180831161236f57829003601f168201915b50505050509650858054600181600116156101000203166002900480601f0160208091040260200160405190810160405280929190818152602001828054600181600116156101000203166002900480156124285780601f106123fd57610100808354040283529160200191612428565b820191906000526020600020905b81548152906001019060200180831161240b57829003601f168201915b50505050509550848054600181600116156101000203166002900480601f0160208091040260200160405190810160405280929190818152602001828054600181600116156101000203166002900480156124c45780601f10612499576101008083540402835291602001916124c4565b820191906000526020600020905b8154815290600101906020018083116124a757829003601f168201915b50505050509450838054600181600116156101000203166002900480601f0160208091040260200160405190810160405280929190818152602001828054600181600116156101000203166002900480156125605780601f1061253557610100808354040283529160200191612560565b820191906000526020600020905b81548152906001019060200180831161254357829003601f168201915b50505050509350965096509650965096509650965092959891949750929550565b606080600260008473ffffffffffffffffffffffffffffffffffffffff1673ffffffffffffffffffffffffffffffffffffffff16815260200190815260200160002060030160009054906101000a900460ff166125dd57600080fd5b600260008473ffffffffffffffffffffffffffffffffffffffff1673ffffffffffffffffffffffffffffffffffffffff168152602001908152602001600020600201600260008573ffffffffffffffffffffffffffffffffffffffff1673ffffffffffffffffffffffffffffffffffffffff168152602001908152602001600020600101818054600181600116156101000203166002900480601f0160208091040260200160405190810160405280929190818152602001828054600181600116156101000203166002900480156126f65780601f106126cb576101008083540402835291602001916126f6565b820191906000526020600020905b8154815290600101906020018083116126d957829003601f168201915b50505050509150808054600181600116156101000203166002900480601f0160208091040260200160405190810160405280929190818152602001828054600181600116156101000203166002900480156127925780601f1061276757610100808354040283529160200191612792565b820191906000526020600020905b81548152906001019060200180831161277557829003601f168201915b5050505050905091509150915091565b60008054906101000a900473ffffffffffffffffffffffffffffffffffffffff1673ffffffffffffffffffffffffffffffffffffffff163373ffffffffffffffffffffffffffffffffffffffff1614612863576040517f08c379a00000000000000000000000000000000000000000000000000000000081526004018080602001828103825260208152602001807f4f6e6c7920636f6e7472616374206f776e65722063616e20646f20746869732e81525060200191505060405180910390fd5b82600260008573ffffffffffffffffffffffffffffffffffffffff1673ffffffffffffffffffffffffffffffffffffffff16815260200190815260200160002060000160006101000a81548173ffffffffffffffffffffffffffffffffffffffff021916908373ffffffffffffffffffffffffffffffffffffffff16021790555081600260008573ffffffffffffffffffffffffffffffffffffffff1673ffffffffffffffffffffffffffffffffffffffff168152602001908152602001600020600101908051906020019061293a929190613a24565b5080600260008573ffffffffffffffffffffffffffffffffffffffff1673ffffffffffffffffffffffffffffffffffffffff1681526020019081526020016000206002019080519060200190612991929190613a24565b506001600260008573ffffffffffffffffffffffffffffffffffffffff1673ffffffffffffffffffffffffffffffffffffffff16815260200190815260200160002060030160006101000a81548160ff021916908315150217905550505050565b60008173ffffffffffffffffffffffffffffffffffffffff163373ffffffffffffffffffffffffffffffffffffffff1614612a95576040517f08c379a00000000000000000000000000000000000000000000000000000000081526004018080602001828103825260208152602001807f596f752063616e206f6e6c79207669657720796f7572206f776e20696e666f2e81525060200191505060405180910390fd5b600360008373ffffffffffffffffffffffffffffffffffffffff1673ffffffffffffffffffffffffffffffffffffffff168152602001908152602001600020600301805490509050919050565b60008054906101000a900473ffffffffffffffffffffffffffffffffffffffff1673ffffffffffffffffffffffffffffffffffffffff163373ffffffffffffffffffffffffffffffffffffffff1614612ba3576040517f08c379a00000000000000000000000000000000000000000000000000000000081526004018080602001828103825260208152602001807f4f6e6c7920636f6e7472616374206f776e65722063616e20646f20746869732e81525060200191505060405180910390fd5b6000600260008373ffffffffffffffffffffffffffffffffffffffff1673ffffffffffffffffffffffffffffffffffffffff16815260200190815260200160002060030160006101000a81548160ff02191690831515021790555050565b600060608273ffffffffffffffffffffffffffffffffffffffff163373ffffffffffffffffffffffffffffffffffffffff1614612ca6576040517f08c379a00000000000000000000000000000000000000000000000000000000081526004018080602001828103825260208152602001807f596f752063616e206f6e6c79207669657720796f7572206f776e20696e666f2e81525060200191505060405180910390fd5b600260008473ffffffffffffffffffffffffffffffffffffffff1673ffffffffffffffffffffffffffffffffffffffff1681526020019081526020016000206004018481548110612cf357fe5b906000526020600020906002020160000160009054906101000a900473ffffffffffffffffffffffffffffffffffffffff16600260008573ffffffffffffffffffffffffffffffffffffffff1673ffffffffffffffffffffffffffffffffffffffff1681526020019081526020016000206004018581548110612d7257fe5b9060005260206000209060020201600101808054600181600116156101000203166002900480601f016020809104026020016040519081016040528092919081815260200182805460018160011615610100020316600290048015612e185780601f10612ded57610100808354040283529160200191612e18565b820191906000526020600020905b815481529060010190602001808311612dfb57829003601f168201915b50505050509050915091509250929050565b60011515600260003373ffffffffffffffffffffffffffffffffffffffff1673ffffffffffffffffffffffffffffffffffffffff16815260200190815260200160002060030160009054906101000a900460ff16151514612e8a57600080fd5b60006040518060800160405280888152602001868152602001878152602001858152509050600060405180608001604052808381526020016000151581526020018481526020013373ffffffffffffffffffffffffffffffffffffffff168152509050600360008573ffffffffffffffffffffffffffffffffffffffff1673ffffffffffffffffffffffffffffffffffffffff1681526020019081526020016000206002018190806001815401808255809150506001900390600052602060002090600702016000909190919091506000820151816000016000820151816000019080519060200190612f7e929190613a24565b506020820151816001019080519060200190612f9b929190613a24565b506040820151816002019080519060200190612fb8929190613a24565b506060820151816003019080519060200190612fd5929190613a24565b50505060208201518160040160006101000a81548160ff0219169083151502179055506040820151816005015560608201518160060160006101000a81548173ffffffffffffffffffffffffffffffffffffffff021916908373ffffffffffffffffffffffffffffffffffffffff16021790555050505050505050505050565b60608060608373ffffffffffffffffffffffffffffffffffffffff163373ffffffffffffffffffffffffffffffffffffffff16146130fb576040517f08c379a00000000000000000000000000000000000000000000000000000000081526004018080602001828103825260208152602001807f596f752063616e206f6e6c79207669657720796f7572206f776e20696e666f2e81525060200191505060405180910390fd5b600360008573ffffffffffffffffffffffffffffffffffffffff1673ffffffffffffffffffffffffffffffffffffffff168152602001908152602001600020600301858154811061314857fe5b9060005260206000209060030201600001600360008673ffffffffffffffffffffffffffffffffffffffff1673ffffffffffffffffffffffffffffffffffffffff16815260200190815260200160002060030186815481106131a657fe5b9060005260206000209060030201600101600360008773ffffffffffffffffffffffffffffffffffffffff1673ffffffffffffffffffffffffffffffffffffffff168152602001908152602001600020600301878154811061320457fe5b9060005260206000209060030201600201828054600181600116156101000203166002900480601f0160208091040260200160405190810160405280929190818152602001828054600181600116156101000203166002900480156132aa5780601f1061327f576101008083540402835291602001916132aa565b820191906000526020600020905b81548152906001019060200180831161328d57829003601f168201915b50505050509250818054600181600116156101000203166002900480601f0160208091040260200160405190810160405280929190818152602001828054600181600116156101000203166002900480156133465780601f1061331b57610100808354040283529160200191613346565b820191906000526020600020905b81548152906001019060200180831161332957829003601f168201915b50505050509150808054600181600116156101000203166002900480601f0160208091040260200160405190810160405280929190818152602001828054600181600116156101000203166002900480156133e25780601f106133b7576101008083540402835291602001916133e2565b820191906000526020600020905b8154815290600101906020018083116133c557829003601f168201915b505050505090509250925092509250925092565b60006060806001848154811061340857fe5b906000526020600020906006020160000160009054906101000a900473ffffffffffffffffffffffffffffffffffffffff166001858154811061344757fe5b90600052602060002090600602016002016001868154811061346557fe5b9060005260206000209060060201600101818054600181600116156101000203166002900480601f01602080910402602001604051908101604052809291908181526020018280546001816001161561010002031660029004801561350b5780601f106134e05761010080835404028352916020019161350b565b820191906000526020600020905b8154815290600101906020018083116134ee57829003601f168201915b50505050509150808054600181600116156101000203166002900480601f0160208091040260200160405190810160405280929190818152602001828054600181600116156101000203166002900480156135a75780601f1061357c576101008083540402835291602001916135a7565b820191906000526020600020905b81548152906001019060200180831161358a57829003601f168201915b505050505090509250925092509193909250565b81600360008573ffffffffffffffffffffffffffffffffffffffff1673ffffffffffffffffffffffffffffffffffffffff168152602001908152602001600020600201828154811061360957fe5b906000526020600020906007020160040160006101000a81548160ff021916908315150217905550505050565b600360003373ffffffffffffffffffffffffffffffffffffffff1673ffffffffffffffffffffffffffffffffffffffff16815260200190815260200160002060040160009054906101000a900460ff1661368f57600080fd5b60006040518060600160405280878152602001868152602001858152509050600360003373ffffffffffffffffffffffffffffffffffffffff1673ffffffffffffffffffffffffffffffffffffffff1681526020019081526020016000206003018190806001815401808255809150506001900390600052602060002090600302016000909190919091506000820151816000019080519060200190613736929190613a24565b506020820151816001019080519060200190613753929190613a24565b506040820151816002019080519060200190613770929190613a24565b505050600060405180606001604052803373ffffffffffffffffffffffffffffffffffffffff168152602001868152602001848152509050600260008573ffffffffffffffffffffffffffffffffffffffff1673ffffffffffffffffffffffffffffffffffffffff16815260200190815260200160002060050181908060018154018082558091505060019003906000526020600020906003020160009091909190915060008201518160000160006101000a81548173ffffffffffffffffffffffffffffffffffffffff021916908373ffffffffffffffffffffffffffffffffffffffff1602179055506020820151816001019080519060200190613877929190613a24565b506040820151816002019080519060200190613894929190613a24565b50505050505050505050565b60008173ffffffffffffffffffffffffffffffffffffffff163373ffffffffffffffffffffffffffffffffffffffff1614613943576040517f08c379a00000000000000000000000000000000000000000000000000000000081526004018080602001828103825260208152602001807f596f752063616e206f6e6c79207669657720796f7572206f776e20696e666f2e81525060200191505060405180910390fd5b600260008373ffffffffffffffffffffffffffffffffffffffff1673ffffffffffffffffffffffffffffffffffffffff168152602001908152602001600020600401805490509050919050565b60008173ffffffffffffffffffffffffffffffffffffffff163373ffffffffffffffffffffffffffffffffffffffff16146139ca57600080fd5b600360008373ffffffffffffffffffffffffffffffffffffffff1673ffffffffffffffffffffffffffffffffffffffff168152602001908152602001600020600201805490509050919050565b6000600180549050905090565b828054600181600116156101000203166002900490600052602060002090601f016020900481019282613a5a5760008555613aa1565b82601f10613a7357805160ff1916838001178555613aa1565b82800160010185558215613aa1579182015b82811115613aa0578251825591602001919060010190613a85565b5b509050613aae9190613d3d565b5090565b828054600181600116156101000203166002900490600052602060002090601f016020900481019282613ae85760008555613b36565b82601f10613af95780548555613b36565b82800160010185558215613b3657600052602060002091601f016020900482015b82811115613b35578254825591600101919060010190613b1a565b5b509050613b439190613d3d565b5090565b828054828255906000526020600020906002028101928215613c1d5760005260206000209160020282015b82811115613c1c5782826000820160009054906101000a900473ffffffffffffffffffffffffffffffffffffffff168160000160006101000a81548173ffffffffffffffffffffffffffffffffffffffff021916908373ffffffffffffffffffffffffffffffffffffffff16021790555060018201816001019080546001816001161561010002031660029004613c0a929190613ab2565b50505091600201919060020190613b72565b5b509050613c2a9190613d5a565b5090565b828054828255906000526020600020906003028101928215613d2c5760005260206000209160030282015b82811115613d2b5782826000820160009054906101000a900473ffffffffffffffffffffffffffffffffffffffff168160000160006101000a81548173ffffffffffffffffffffffffffffffffffffffff021916908373ffffffffffffffffffffffffffffffffffffffff16021790555060018201816001019080546001816001161561010002031660029004613cf1929190613ab2565b5060028201816002019080546001816001161561010002031660029004613d19929190613ab2565b50505091600301919060030190613c59565b5b509050613d399190613da8565b5090565b5b80821115613d56576000816000905550600101613d3e565b5090565b5b80821115613da457600080820160006101000a81549073ffffffffffffffffffffffffffffffffffffffff0219169055600182016000613d9b9190613e06565b50600201613d5b565b5090565b5b80821115613e0257600080820160006101000a81549073ffffffffffffffffffffffffffffffffffffffff0219169055600182016000613de99190613e06565b600282016000613df99190613e06565b50600301613da9565b5090565b50805460018160011615610100020316600290046000825580601f10613e2c5750613e4b565b601f016020900490600052602060002090810190613e4a9190613d3d565b5b5056fea264697066735822122026e06ce656b07f51e36e36c45d9b99f980dfc691799600a1ad8ca7054d0c525164736f6c63430007060033",
  "immutableReferences": {},
  "source": "// SPDX-License-Identifier: GPL-3.0\r\npragma solidity >=0.7.0 <=0.8.3;\r\n\r\ncontract HealthRecord {\r\n    address private contractOwner;\r\n\r\n    struct UserResult {\r\n        string testResult;\r\n        string date;\r\n        string placeName;\r\n        string location;\r\n    }\r\n\r\n    struct PendingTransaction {\r\n        UserResult result;\r\n        bool paid;\r\n        uint256 amount;\r\n        address payableTo;\r\n    }\r\n\r\n    struct AppointmentListUser {\r\n        string provName;\r\n        string provLocation;\r\n        string date;\r\n    }\r\n\r\n    struct AppointmentListProvider {\r\n        address patient;\r\n        string date;\r\n        string encryptedUserInfo;\r\n    }\r\n\r\n    struct History {\r\n        address patientAddress;\r\n        string date;\r\n    }\r\n\r\n    struct ProviderUser {\r\n        address userAddress;\r\n        string location;\r\n        string placeName;\r\n        bool isActive;\r\n        History[] historyList;\r\n        AppointmentListProvider[] appointmentList;\r\n    }\r\n\r\n    struct User {\r\n        address userAddress;\r\n        UserResult[] results;\r\n        PendingTransaction[] pendingResult;\r\n        AppointmentListUser[] appointmentList;\r\n        bool isActive;\r\n    }\r\n\r\n    // struct HospitalUser{\r\n    //     address userAddress;\r\n    //     string location;\r\n    //     string placeName;\r\n    //     bool isActive;\r\n    // }\r\n\r\n    ProviderUser[] private hospitalList; // just a list\r\n    //  mapping (address => HospitalUser) private hospital;\r\n    mapping(address => ProviderUser) private provider;\r\n    mapping(address => User) private users; // maybe change to private\r\n\r\n    constructor() {\r\n        contractOwner = msg.sender;\r\n    }\r\n\r\n    //add users\r\n    function registerUser(address user_) public {\r\n        // require(msg.sender == user_);\r\n        users[user_].userAddress = user_;\r\n        users[user_].isActive = true;\r\n    }\r\n\r\n    function userMakeAppointment(\r\n        string memory venue_,\r\n        string memory location_,\r\n        string memory date_,\r\n        address provider_,\r\n        string memory encryptedUserInfo_\r\n    ) public {\r\n        require(users[msg.sender].isActive);\r\n        AppointmentListUser memory appoint_ =\r\n            AppointmentListUser(venue_, location_, date_);\r\n        users[msg.sender].appointmentList.push(appoint_);\r\n        AppointmentListProvider memory appointProv_ =\r\n            AppointmentListProvider(msg.sender, date_, encryptedUserInfo_);\r\n        provider[provider_].appointmentList.push(appointProv_);\r\n    }\r\n\r\n    function getUserAppointmentList(uint256 count_, address users_)\r\n        public\r\n        view\r\n        returns (\r\n            string memory,\r\n            string memory,\r\n            string memory\r\n        )\r\n    {\r\n        require(msg.sender == users_, \"You can only view your own info.\");\r\n        return (\r\n            users[users_].appointmentList[count_].provName,\r\n            users[users_].appointmentList[count_].provLocation,\r\n            users[users_].appointmentList[count_].date\r\n        );\r\n    }\r\n\r\n    function getProviderAppointmentList(uint256 count_, address provider_)\r\n        public\r\n        view\r\n        returns (\r\n            address,\r\n            string memory,\r\n            string memory\r\n        )\r\n    {\r\n        require(msg.sender == provider_, \"You can only view your own info.\");\r\n        return (\r\n            provider[provider_].appointmentList[count_].patient,\r\n            provider[provider_].appointmentList[count_].date,\r\n            provider[provider_].appointmentList[count_].encryptedUserInfo\r\n        );\r\n    }\r\n\r\n    function getUserAppointmentListLength(address users_)\r\n        public\r\n        view\r\n        returns (uint256)\r\n    {\r\n        require(msg.sender == users_, \"You can only view your own info.\");\r\n        return (users[users_].appointmentList.length);\r\n    }\r\n\r\n    function getProviderAppointmentListLength(address provider_)\r\n        public\r\n        view\r\n        returns (uint256)\r\n    {\r\n        require(msg.sender == provider_, \"You can only view your own info.\");\r\n        return (provider[provider_].appointmentList.length);\r\n    }\r\n\r\n    function getProviderHistoryList(uint256 count_, address provider_)\r\n        public\r\n        view\r\n        returns (address, string memory)\r\n    {\r\n        require(msg.sender == provider_, \"You can only view your own info.\");\r\n        return (\r\n            provider[provider_].historyList[count_].patientAddress,\r\n            provider[provider_].historyList[count_].date\r\n        );\r\n    }\r\n\r\n    function getProviderHistoryListLength(address provider_)\r\n        public\r\n        view\r\n        returns (uint256)\r\n    {\r\n        require(msg.sender == provider_, \"You can only view your own info.\");\r\n        return (provider[provider_].historyList.length);\r\n    }\r\n\r\n    function registerKiosk(\r\n        address kiosk_,\r\n        string memory location_,\r\n        string memory name_\r\n    ) public {\r\n        require(\r\n            msg.sender == contractOwner,\r\n            \"Only contract owner can do this.\"\r\n        );\r\n        provider[kiosk_].userAddress = kiosk_;\r\n        provider[kiosk_].location = location_;\r\n        provider[kiosk_].placeName = name_;\r\n        provider[kiosk_].isActive = true;\r\n    }\r\n\r\n    function registerHospital(\r\n        address hospital_,\r\n        string memory location_,\r\n        string memory name_\r\n    ) public {\r\n        require(\r\n            msg.sender == contractOwner,\r\n            \"Only contract owner can do this.\"\r\n        );\r\n        // ProviderUser memory hUser = ProviderUser(hospital_, location_, name_, true);\r\n\r\n        // provider[hospital_] = hUser;\r\n        provider[hospital_].userAddress = hospital_;\r\n        provider[hospital_].location = location_;\r\n        provider[hospital_].placeName = name_;\r\n        provider[hospital_].isActive = true;\r\n        hospitalList.push(provider[hospital_]);\r\n    }\r\n\r\n    function disableProvider(address provider_) public {\r\n        require(\r\n            msg.sender == contractOwner,\r\n            \"Only contract owner can do this.\"\r\n        );\r\n        provider[provider_].isActive = false;\r\n    }\r\n\r\n    function getProviderInfo(address provider_)\r\n        public\r\n        view\r\n        returns (string memory, string memory)\r\n    {\r\n        require(provider[provider_].isActive);\r\n        return (provider[provider_].placeName, provider[provider_].location);\r\n    }\r\n\r\n    //add record as kiosk\r\n    // function addHealthRecord(address endUser, string memory testresult_, string memory temp_, string memory place_) public{\r\n    //     require(provider[msg.sender].isActive == true);\r\n    //     UserResult memory result_ = UserResult(testresult_, temp_, place_);\r\n    //     users[endUser].results.push(result_);\r\n    // }\r\n\r\n    //get record as user\r\n    function getHealthRecord(uint256 count_, address user_)\r\n        public\r\n        view\r\n        returns (string memory, string memory)\r\n    {\r\n        return (\r\n            users[user_].pendingResult[count_].result.testResult,\r\n            users[user_].pendingResult[count_].result.location\r\n        );\r\n    }\r\n\r\n    //add transaction\r\n    function addPendingHealthRecord(\r\n        string memory testResult_,\r\n        string memory date_,\r\n        string memory placeName_,\r\n        string memory place_,\r\n        address endUser,\r\n        uint256 amount_\r\n    ) public {\r\n        require(provider[msg.sender].isActive == true);\r\n        UserResult memory resultData =\r\n            UserResult(testResult_, placeName_, date_, place_);\r\n        PendingTransaction memory pendingResult_ =\r\n            PendingTransaction(resultData, false, amount_, msg.sender);\r\n        users[endUser].pendingResult.push(pendingResult_);\r\n    }\r\n\r\n    function updatePendingHealthRecord(\r\n        address user_,\r\n        bool paidStatus_,\r\n        uint256 count_\r\n    ) public {\r\n        users[user_].pendingResult[count_].paid = paidStatus_;\r\n    }\r\n\r\n    //get record as user\r\n    function getPendingHealthRecord(uint256 count_, address user_)\r\n        public\r\n        view\r\n        returns (\r\n            string memory,\r\n            string memory,\r\n            string memory,\r\n            string memory,\r\n            uint256,\r\n            bool,\r\n            address\r\n        )\r\n    {\r\n        require(msg.sender == user_);\r\n        return (\r\n            users[user_].pendingResult[count_].result.testResult,\r\n            users[user_].pendingResult[count_].result.date,\r\n            users[user_].pendingResult[count_].result.placeName,\r\n            users[user_].pendingResult[count_].result.location,\r\n            users[user_].pendingResult[count_].amount,\r\n            users[user_].pendingResult[count_].paid,\r\n            users[user_].pendingResult[count_].payableTo\r\n        );\r\n    }\r\n\r\n    function getPendingHealthRecordLength(address user_)\r\n        public\r\n        view\r\n        returns (uint256)\r\n    {\r\n        require(msg.sender == user_);\r\n        return (users[user_].pendingResult.length);\r\n    }\r\n\r\n    function getHospitalListLength() public view returns (uint256) {\r\n        return (hospitalList.length);\r\n    }\r\n\r\n    function getHospitalList(uint256 count_)\r\n        public\r\n        view\r\n        returns (\r\n            address,\r\n            string memory,\r\n            string memory\r\n        )\r\n    {\r\n        return (\r\n            hospitalList[count_].userAddress,\r\n            hospitalList[count_].placeName,\r\n            hospitalList[count_].location\r\n        );\r\n    }\r\n}\r\n",
  "sourcePath": "D:/Wen/Uni_stuff/year_4/FYP/fyp-blockchain/contracts/HealthRecord.sol",
  "compiler": {
    "name": "solc",
    "version": "0.7.6+commit.7338295f.Emscripten.clang"
  },
  "schemaVersion": "3.3.4",
  "updatedAt": "2021-04-17T14:18:16.999Z",
  "networkType": "ethereum",
  "devdoc": {
    "kind": "dev",
    "methods": {},
    "version": 1
  },
  "userdoc": {
    "kind": "user",
    "methods": {},
    "version": 1
  }
}