{
  "contractName": "HealthRecord",
  "abi": [
    {
      "inputs": [],
      "stateMutability": "nonpayable",
      "type": "constructor"
    },
    {
      "inputs": [
        {
          "internalType": "address",
          "name": "user_",
          "type": "address"
        }
      ],
      "name": "registerUser",
      "outputs": [],
      "stateMutability": "nonpayable",
      "type": "function"
    },
    {
      "inputs": [
        {
          "internalType": "address",
          "name": "kiosk_",
          "type": "address"
        },
        {
          "internalType": "string",
          "name": "location_",
          "type": "string"
        },
        {
          "internalType": "string",
          "name": "name_",
          "type": "string"
        }
      ],
      "name": "registerKiosk",
      "outputs": [],
      "stateMutability": "nonpayable",
      "type": "function"
    },
    {
      "inputs": [
        {
          "internalType": "address",
          "name": "hospital_",
          "type": "address"
        },
        {
          "internalType": "string",
          "name": "location_",
          "type": "string"
        },
        {
          "internalType": "string",
          "name": "name_",
          "type": "string"
        }
      ],
      "name": "registerHospital",
      "outputs": [],
      "stateMutability": "nonpayable",
      "type": "function"
    },
    {
      "inputs": [
        {
          "internalType": "address",
          "name": "provider_",
          "type": "address"
        }
      ],
      "name": "disableProvider",
      "outputs": [],
      "stateMutability": "nonpayable",
      "type": "function"
    },
    {
      "inputs": [
        {
          "internalType": "address",
          "name": "provider_",
          "type": "address"
        }
      ],
      "name": "getProviderInfo",
      "outputs": [
        {
          "internalType": "string",
          "name": "",
          "type": "string"
        },
        {
          "internalType": "string",
          "name": "",
          "type": "string"
        }
      ],
      "stateMutability": "view",
      "type": "function",
      "constant": true
    },
    {
      "inputs": [
        {
          "internalType": "address",
          "name": "endUser",
          "type": "address"
        },
        {
          "internalType": "string",
          "name": "testresult_",
          "type": "string"
        },
        {
          "internalType": "string",
          "name": "temp_",
          "type": "string"
        },
        {
          "internalType": "string",
          "name": "place_",
          "type": "string"
        }
      ],
      "name": "addHealthRecord",
      "outputs": [],
      "stateMutability": "nonpayable",
      "type": "function"
    },
    {
      "inputs": [
        {
          "internalType": "uint256",
          "name": "count_",
          "type": "uint256"
        },
        {
          "internalType": "address",
          "name": "user_",
          "type": "address"
        }
      ],
      "name": "getHealthRecord",
      "outputs": [
        {
          "internalType": "string",
          "name": "",
          "type": "string"
        },
        {
          "internalType": "string",
          "name": "",
          "type": "string"
        }
      ],
      "stateMutability": "view",
      "type": "function",
      "constant": true
    },
    {
      "inputs": [
        {
          "internalType": "string",
          "name": "testResult_",
          "type": "string"
        },
        {
          "internalType": "string",
          "name": "date_",
          "type": "string"
        },
        {
          "internalType": "string",
          "name": "place_",
          "type": "string"
        },
        {
          "internalType": "address",
          "name": "endUser",
          "type": "address"
        },
        {
          "internalType": "uint256",
          "name": "amount_",
          "type": "uint256"
        }
      ],
      "name": "addPendingHealthRecord",
      "outputs": [],
      "stateMutability": "nonpayable",
      "type": "function"
    },
    {
      "inputs": [
        {
          "internalType": "uint256",
          "name": "count_",
          "type": "uint256"
        },
        {
          "internalType": "address",
          "name": "user_",
          "type": "address"
        }
      ],
      "name": "getPendingHealthRecord",
      "outputs": [
        {
          "internalType": "string",
          "name": "",
          "type": "string"
        },
        {
          "internalType": "string",
          "name": "",
          "type": "string"
        },
        {
          "internalType": "string",
          "name": "",
          "type": "string"
        },
        {
          "internalType": "uint256",
          "name": "",
          "type": "uint256"
        },
        {
          "internalType": "bool",
          "name": "",
          "type": "bool"
        },
        {
          "internalType": "address",
          "name": "",
          "type": "address"
        }
      ],
      "stateMutability": "view",
      "type": "function",
      "constant": true
    },
    {
      "inputs": [
        {
          "internalType": "address",
          "name": "user_",
          "type": "address"
        }
      ],
      "name": "getPendingHealthRecordLength",
      "outputs": [
        {
          "internalType": "uint256",
          "name": "",
          "type": "uint256"
        }
      ],
      "stateMutability": "view",
      "type": "function",
      "constant": true
    },
    {
      "inputs": [],
      "name": "getOwner",
      "outputs": [
        {
          "internalType": "address",
          "name": "",
          "type": "address"
        }
      ],
      "stateMutability": "view",
      "type": "function",
      "constant": true
    }
  ],
  "bytecode": "0x608060405234801561001057600080fd5b50336000806101000a81548173ffffffffffffffffffffffffffffffffffffffff021916908373ffffffffffffffffffffffffffffffffffffffff16021790555061212a806100606000396000f3fe608060405234801561001057600080fd5b50600436106100995760003560e01c80632199d5cd1461009e578063427c3868146100e257806343a1489d1461021557806349d41e831461041e5780636e46b521146105905780637125b6f1146107a35780637583902f1461096f5780637b74686414610a98578063893d20e814610c0a5780638dc2fe9814610c3e578063f559b2b214610c82575b600080fd5b6100e0600480360360208110156100b457600080fd5b81019080803573ffffffffffffffffffffffffffffffffffffffff169060200190929190505050610cda565b005b61012e600480360360408110156100f857600080fd5b8101908080359060200190929190803573ffffffffffffffffffffffffffffffffffffffff169060200190929190505050610d5e565b604051808060200180602001838103835285818151815260200191508051906020019080838360005b83811015610172578082015181840152602081019050610157565b50505050905090810190601f16801561019f5780820380516001836020036101000a031916815260200191505b50838103825284818151815260200191508051906020019080838360005b838110156101d85780820151818401526020810190506101bd565b50505050905090810190601f1680156102055780820380516001836020036101000a031916815260200191505b5094505050505060405180910390f35b61041c6004803603608081101561022b57600080fd5b81019080803573ffffffffffffffffffffffffffffffffffffffff1690602001909291908035906020019064010000000081111561026857600080fd5b82018360208201111561027a57600080fd5b8035906020019184600183028401116401000000008311171561029c57600080fd5b91908080601f016020809104026020016040519081016040528093929190818152602001838380828437600081840152601f19601f820116905080830192505050505050509192919290803590602001906401000000008111156102ff57600080fd5b82018360208201111561031157600080fd5b8035906020019184600183028401116401000000008311171561033357600080fd5b91908080601f016020809104026020016040519081016040528093929190818152602001838380828437600081840152601f19601f8201169050808301925050505050505091929192908035906020019064010000000081111561039657600080fd5b8201836020820111156103a857600080fd5b803590602001918460018302840111640100000000831117156103ca57600080fd5b91908080601f016020809104026020016040519081016040528093929190818152602001838380828437600081840152601f19601f820116905080830192505050505050509192919290505050610f66565b005b61058e6004803603606081101561043457600080fd5b81019080803573ffffffffffffffffffffffffffffffffffffffff1690602001909291908035906020019064010000000081111561047157600080fd5b82018360208201111561048357600080fd5b803590602001918460018302840111640100000000831117156104a557600080fd5b91908080601f016020809104026020016040519081016040528093929190818152602001838380828437600081840152601f19601f8201169050808301925050505050505091929192908035906020019064010000000081111561050857600080fd5b82018360208201111561051a57600080fd5b8035906020019184600183028401116401000000008311171561053c57600080fd5b91908080601f016020809104026020016040519081016040528093929190818152602001838380828437600081840152601f19601f8201169050808301925050505050505091929192905050506110b1565b005b6107a1600480360360a08110156105a657600080fd5b81019080803590602001906401000000008111156105c357600080fd5b8201836020820111156105d557600080fd5b803590602001918460018302840111640100000000831117156105f757600080fd5b91908080601f016020809104026020016040519081016040528093929190818152602001838380828437600081840152601f19601f8201169050808301925050505050505091929192908035906020019064010000000081111561065a57600080fd5b82018360208201111561066c57600080fd5b8035906020019184600183028401116401000000008311171561068e57600080fd5b91908080601f016020809104026020016040519081016040528093929190818152602001838380828437600081840152601f19601f820116905080830192505050505050509192919290803590602001906401000000008111156106f157600080fd5b82018360208201111561070357600080fd5b8035906020019184600183028401116401000000008311171561072557600080fd5b91908080601f016020809104026020016040519081016040528093929190818152602001838380828437600081840152601f19601f820116905080830192505050505050509192919290803573ffffffffffffffffffffffffffffffffffffffff16906020019092919080359060200190929190505050611369565b005b6107ef600480360360408110156107b957600080fd5b8101908080359060200190929190803573ffffffffffffffffffffffffffffffffffffffff169060200190929190505050611570565b6040518080602001806020018060200187815260200186151581526020018573ffffffffffffffffffffffffffffffffffffffff16815260200184810384528a818151815260200191508051906020019080838360005b83811015610861578082015181840152602081019050610846565b50505050905090810190601f16801561088e5780820380516001836020036101000a031916815260200191505b50848103835289818151815260200191508051906020019080838360005b838110156108c75780820151818401526020810190506108ac565b50505050905090810190601f1680156108f45780820380516001836020036101000a031916815260200191505b50848103825288818151815260200191508051906020019080838360005b8381101561092d578082015181840152602081019050610912565b50505050905090810190601f16801561095a5780820380516001836020036101000a031916815260200191505b50995050505050505050505060405180910390f35b6109b16004803603602081101561098557600080fd5b81019080803573ffffffffffffffffffffffffffffffffffffffff169060200190929190505050611a09565b604051808060200180602001838103835285818151815260200191508051906020019080838360005b838110156109f55780820151818401526020810190506109da565b50505050905090810190601f168015610a225780820380516001836020036101000a031916815260200191505b50838103825284818151815260200191508051906020019080838360005b83811015610a5b578082015181840152602081019050610a40565b50505050905090810190601f168015610a885780820380516001836020036101000a031916815260200191505b5094505050505060405180910390f35b610c0860048036036060811015610aae57600080fd5b81019080803573ffffffffffffffffffffffffffffffffffffffff16906020019092919080359060200190640100000000811115610aeb57600080fd5b820183602082011115610afd57600080fd5b80359060200191846001830284011164010000000083111715610b1f57600080fd5b91908080601f016020809104026020016040519081016040528093929190818152602001838380828437600081840152601f19601f82011690508083019250505050505050919291929080359060200190640100000000811115610b8257600080fd5b820183602082011115610b9457600080fd5b80359060200191846001830284011164010000000083111715610bb657600080fd5b91908080601f016020809104026020016040519081016040528093929190818152602001838380828437600081840152601f19601f820116905080830192505050505050509192919290505050611c2a565b005b610c12611e7a565b604051808273ffffffffffffffffffffffffffffffffffffffff16815260200191505060405180910390f35b610c8060048036036020811015610c5457600080fd5b81019080803573ffffffffffffffffffffffffffffffffffffffff169060200190929190505050611ea3565b005b610cc460048036036020811015610c9857600080fd5b81019080803573ffffffffffffffffffffffffffffffffffffffff169060200190929190505050611fc2565b6040518082815260200191505060405180910390f35b80600360008373ffffffffffffffffffffffffffffffffffffffff1673ffffffffffffffffffffffffffffffffffffffff16815260200190815260200160002060000160006101000a81548173ffffffffffffffffffffffffffffffffffffffff021916908373ffffffffffffffffffffffffffffffffffffffff16021790555050565b606080600360008473ffffffffffffffffffffffffffffffffffffffff1673ffffffffffffffffffffffffffffffffffffffff1681526020019081526020016000206002018481548110610dae57fe5b9060005260206000209060060201600001600001600360008573ffffffffffffffffffffffffffffffffffffffff1673ffffffffffffffffffffffffffffffffffffffff1681526020019081526020016000206002018581548110610e0f57fe5b9060005260206000209060060201600001600201818054600181600116156101000203166002900480601f016020809104026020016040519081016040528092919081815260200182805460018160011615610100020316600290048015610eb85780601f10610e8d57610100808354040283529160200191610eb8565b820191906000526020600020905b815481529060010190602001808311610e9b57829003601f168201915b50505050509150808054600181600116156101000203166002900480601f016020809104026020016040519081016040528092919081815260200182805460018160011615610100020316600290048015610f545780601f10610f2957610100808354040283529160200191610f54565b820191906000526020600020905b815481529060010190602001808311610f3757829003601f168201915b50505050509050915091509250929050565b60011515600260003373ffffffffffffffffffffffffffffffffffffffff1673ffffffffffffffffffffffffffffffffffffffff16815260200190815260200160002060030160009054906101000a900460ff16151514610fc657600080fd5b60006040518060600160405280858152602001848152602001838152509050600360008673ffffffffffffffffffffffffffffffffffffffff1673ffffffffffffffffffffffffffffffffffffffff168152602001908152602001600020600101819080600181540180825580915050600190039060005260206000209060030201600090919091909150600082015181600001908051906020019061106d929190612049565b50602082015181600101908051906020019061108a929190612049565b5060408201518160020190805190602001906110a7929190612049565b5050505050505050565b60008054906101000a900473ffffffffffffffffffffffffffffffffffffffff1673ffffffffffffffffffffffffffffffffffffffff163373ffffffffffffffffffffffffffffffffffffffff1614611172576040517f08c379a00000000000000000000000000000000000000000000000000000000081526004018080602001828103825260208152602001807f4f6e6c7920636f6e7472616374206f776e65722063616e20646f20746869732e81525060200191505060405180910390fd5b600060405180608001604052808573ffffffffffffffffffffffffffffffffffffffff16815260200184815260200183815260200160011515815250905080600260008673ffffffffffffffffffffffffffffffffffffffff1673ffffffffffffffffffffffffffffffffffffffff16815260200190815260200160002060008201518160000160006101000a81548173ffffffffffffffffffffffffffffffffffffffff021916908373ffffffffffffffffffffffffffffffffffffffff1602179055506020820151816001019080519060200190611253929190612049565b506040820151816002019080519060200190611270929190612049565b5060608201518160030160006101000a81548160ff021916908315150217905550905050600181908060018154018082558091505060019003906000526020600020906004020160009091909190915060008201518160000160006101000a81548173ffffffffffffffffffffffffffffffffffffffff021916908373ffffffffffffffffffffffffffffffffffffffff1602179055506020820151816001019080519060200190611323929190612049565b506040820151816002019080519060200190611340929190612049565b5060608201518160030160006101000a81548160ff021916908315150217905550505050505050565b60011515600260003373ffffffffffffffffffffffffffffffffffffffff1673ffffffffffffffffffffffffffffffffffffffff16815260200190815260200160002060030160009054906101000a900460ff161515146113c957600080fd5b60006040518060600160405280878152602001868152602001858152509050600060405180608001604052808381526020016000151581526020018481526020013373ffffffffffffffffffffffffffffffffffffffff168152509050600360008573ffffffffffffffffffffffffffffffffffffffff1673ffffffffffffffffffffffffffffffffffffffff16815260200190815260200160002060020181908060018154018082558091505060019003906000526020600020906006020160009091909190915060008201518160000160008201518160000190805190602001906114b7929190612049565b5060208201518160010190805190602001906114d4929190612049565b5060408201518160020190805190602001906114f1929190612049565b50505060208201518160030160006101000a81548160ff0219169083151502179055506040820151816004015560608201518160050160006101000a81548173ffffffffffffffffffffffffffffffffffffffff021916908373ffffffffffffffffffffffffffffffffffffffff160217905550505050505050505050565b606080606060008060008673ffffffffffffffffffffffffffffffffffffffff163373ffffffffffffffffffffffffffffffffffffffff16146115b257600080fd5b600360008873ffffffffffffffffffffffffffffffffffffffff1673ffffffffffffffffffffffffffffffffffffffff16815260200190815260200160002060020188815481106115ff57fe5b9060005260206000209060060201600001600001600360008973ffffffffffffffffffffffffffffffffffffffff1673ffffffffffffffffffffffffffffffffffffffff168152602001908152602001600020600201898154811061166057fe5b9060005260206000209060060201600001600101600360008a73ffffffffffffffffffffffffffffffffffffffff1673ffffffffffffffffffffffffffffffffffffffff1681526020019081526020016000206002018a815481106116c157fe5b9060005260206000209060060201600001600201600360008b73ffffffffffffffffffffffffffffffffffffffff1673ffffffffffffffffffffffffffffffffffffffff1681526020019081526020016000206002018b8154811061172257fe5b906000526020600020906006020160040154600360008c73ffffffffffffffffffffffffffffffffffffffff1673ffffffffffffffffffffffffffffffffffffffff1681526020019081526020016000206002018c8154811061178157fe5b906000526020600020906006020160030160009054906101000a900460ff16600360008d73ffffffffffffffffffffffffffffffffffffffff1673ffffffffffffffffffffffffffffffffffffffff1681526020019081526020016000206002018d815481106117ed57fe5b906000526020600020906006020160050160009054906101000a900473ffffffffffffffffffffffffffffffffffffffff16858054600181600116156101000203166002900480601f0160208091040260200160405190810160405280929190818152602001828054600181600116156101000203166002900480156118b45780601f10611889576101008083540402835291602001916118b4565b820191906000526020600020905b81548152906001019060200180831161189757829003601f168201915b50505050509550848054600181600116156101000203166002900480601f0160208091040260200160405190810160405280929190818152602001828054600181600116156101000203166002900480156119505780601f1061192557610100808354040283529160200191611950565b820191906000526020600020905b81548152906001019060200180831161193357829003601f168201915b50505050509450838054600181600116156101000203166002900480601f0160208091040260200160405190810160405280929190818152602001828054600181600116156101000203166002900480156119ec5780601f106119c1576101008083540402835291602001916119ec565b820191906000526020600020905b8154815290600101906020018083116119cf57829003601f168201915b505050505093509550955095509550955095509295509295509295565b606080600260008473ffffffffffffffffffffffffffffffffffffffff1673ffffffffffffffffffffffffffffffffffffffff16815260200190815260200160002060030160009054906101000a900460ff16611a6557600080fd5b600260008473ffffffffffffffffffffffffffffffffffffffff1673ffffffffffffffffffffffffffffffffffffffff168152602001908152602001600020600201600260008573ffffffffffffffffffffffffffffffffffffffff1673ffffffffffffffffffffffffffffffffffffffff168152602001908152602001600020600101818054600181600116156101000203166002900480601f016020809104026020016040519081016040528092919081815260200182805460018160011615610100020316600290048015611b7e5780601f10611b5357610100808354040283529160200191611b7e565b820191906000526020600020905b815481529060010190602001808311611b6157829003601f168201915b50505050509150808054600181600116156101000203166002900480601f016020809104026020016040519081016040528092919081815260200182805460018160011615610100020316600290048015611c1a5780601f10611bef57610100808354040283529160200191611c1a565b820191906000526020600020905b815481529060010190602001808311611bfd57829003601f168201915b5050505050905091509150915091565b60008054906101000a900473ffffffffffffffffffffffffffffffffffffffff1673ffffffffffffffffffffffffffffffffffffffff163373ffffffffffffffffffffffffffffffffffffffff1614611ceb576040517f08c379a00000000000000000000000000000000000000000000000000000000081526004018080602001828103825260208152602001807f4f6e6c7920636f6e7472616374206f776e65722063616e20646f20746869732e81525060200191505060405180910390fd5b82600260008573ffffffffffffffffffffffffffffffffffffffff1673ffffffffffffffffffffffffffffffffffffffff16815260200190815260200160002060000160006101000a81548173ffffffffffffffffffffffffffffffffffffffff021916908373ffffffffffffffffffffffffffffffffffffffff16021790555081600260008573ffffffffffffffffffffffffffffffffffffffff1673ffffffffffffffffffffffffffffffffffffffff1681526020019081526020016000206001019080519060200190611dc2929190612049565b5080600260008573ffffffffffffffffffffffffffffffffffffffff1673ffffffffffffffffffffffffffffffffffffffff1681526020019081526020016000206002019080519060200190611e19929190612049565b506001600260008573ffffffffffffffffffffffffffffffffffffffff1673ffffffffffffffffffffffffffffffffffffffff16815260200190815260200160002060030160006101000a81548160ff021916908315150217905550505050565b60008060009054906101000a900473ffffffffffffffffffffffffffffffffffffffff16905090565b60008054906101000a900473ffffffffffffffffffffffffffffffffffffffff1673ffffffffffffffffffffffffffffffffffffffff163373ffffffffffffffffffffffffffffffffffffffff1614611f64576040517f08c379a00000000000000000000000000000000000000000000000000000000081526004018080602001828103825260208152602001807f4f6e6c7920636f6e7472616374206f776e65722063616e20646f20746869732e81525060200191505060405180910390fd5b6000600260008373ffffffffffffffffffffffffffffffffffffffff1673ffffffffffffffffffffffffffffffffffffffff16815260200190815260200160002060030160006101000a81548160ff02191690831515021790555050565b60008173ffffffffffffffffffffffffffffffffffffffff163373ffffffffffffffffffffffffffffffffffffffff1614611ffc57600080fd5b600360008373ffffffffffffffffffffffffffffffffffffffff1673ffffffffffffffffffffffffffffffffffffffff168152602001908152602001600020600201805490509050919050565b828054600181600116156101000203166002900490600052602060002090601f01602090048101928261207f57600085556120c6565b82601f1061209857805160ff19168380011785556120c6565b828001600101855582156120c6579182015b828111156120c55782518255916020019190600101906120aa565b5b5090506120d391906120d7565b5090565b5b808211156120f05760008160009055506001016120d8565b509056fea2646970667358221220ef1c5b17a4abcb96edd84b3f818c85592d0ac30d476c8aef1c3132df53bcf7ae64736f6c63430007060033",
  "immutableReferences": {},
  "source": "// SPDX-License-Identifier: GPL-3.0\r\npragma solidity >=0.7.0 <=0.8.3;\r\n\r\ncontract HealthRecord{\r\n    \r\n    address private contractOwner;\r\n    \r\n    struct UserResult{\r\n        string testResult;\r\n        string date;\r\n        string place;\r\n    }\r\n    \r\n    struct PendingTransaction{\r\n        UserResult result;\r\n        bool paid;\r\n        uint256 amount;\r\n        address payableTo;\r\n        \r\n    }\r\n    \r\n    struct User{\r\n        address userAddress;\r\n        UserResult[] results;\r\n        PendingTransaction[] pendingResult;\r\n    }\r\n    \r\n    struct ProviderUser{\r\n        address userAddress;\r\n        string location;\r\n        string placeName;\r\n        bool isActive;\r\n        \r\n    }\r\n    \r\n    // struct HospitalUser{\r\n    //     address userAddress;\r\n    //     string location;\r\n    //     string placeName;\r\n    //     bool isActive;\r\n    // }\r\n    \r\n    ProviderUser[] private hospitalList; // just a list \r\n   // mapping (address => HospitalUser) private hospital;\r\n    mapping (address => ProviderUser) private provider;\r\n    mapping (address  => User) private users; // maybe change to private\r\n    \r\n    \r\n    constructor (){\r\n        contractOwner = msg.sender;\r\n    }\r\n    \r\n    //add users\r\n    function registerUser(address user_) public{\r\n       // require(msg.sender == user_);\r\n        users[user_].userAddress = user_;\r\n        \r\n    }\r\n    \r\n    \r\n    function registerKiosk(address kiosk_, string memory location_, string memory name_) public{\r\n        require(msg.sender == contractOwner, \"Only contract owner can do this.\");\r\n        provider[kiosk_].userAddress = kiosk_;\r\n        provider[kiosk_].location = location_;\r\n        provider[kiosk_].placeName = name_;\r\n        provider[kiosk_].isActive = true;\r\n    }\r\n    \r\n    function registerHospital(address hospital_, string memory location_, string memory name_) public{\r\n        require(msg.sender == contractOwner, \"Only contract owner can do this.\");\r\n        ProviderUser memory hUser = ProviderUser(hospital_, location_, name_, true);\r\n        provider[hospital_] = hUser;\r\n        hospitalList.push(hUser);\r\n    }\r\n    \r\n    function disableProvider(address provider_) public{\r\n        require(msg.sender == contractOwner, \"Only contract owner can do this.\");\r\n        provider[provider_].isActive = false;\r\n    }\r\n  \r\n    \r\n    function getProviderInfo(address provider_) public view returns(string memory, string memory){\r\n        require(provider[provider_].isActive);\r\n        return(\r\n            provider[provider_].placeName,\r\n            provider[provider_].location\r\n            );\r\n        \r\n    }\r\n    \r\n    \r\n    //add record as kiosk\r\n    function addHealthRecord(address endUser, string memory testresult_, string memory temp_, string memory place_) public{\r\n        require(provider[msg.sender].isActive == true);\r\n        UserResult memory result_ = UserResult(testresult_, temp_, place_);\r\n        users[endUser].results.push(result_);\r\n    }\r\n    \r\n    //get record as user\r\n    function getHealthRecord(uint count_ , address user_) public view returns(string memory , string memory){\r\n        return (users[user_].pendingResult[count_].result.testResult, users[user_].pendingResult[count_].result.place );\r\n    }\r\n    \r\n    \r\n    //add transaction \r\n    function addPendingHealthRecord(string memory testResult_, string memory date_, string memory place_ , address endUser, uint256 amount_) public{\r\n        require(provider[msg.sender].isActive == true );\r\n        UserResult memory resultData = UserResult(testResult_, date_, place_);\r\n        PendingTransaction memory pendingResult_ = PendingTransaction(resultData, false, amount_, msg.sender);\r\n        users[endUser].pendingResult.push(pendingResult_);\r\n        \r\n\r\n    }\r\n    \r\n    //get record as user\r\n    function getPendingHealthRecord(uint count_, address user_) public view returns(string memory, string memory, string memory, uint256, bool, address  ){\r\n        require(msg.sender == user_);\r\n        return (users[user_].pendingResult[count_].result.testResult, \r\n                users[user_].pendingResult[count_].result.date , \r\n                users[user_].pendingResult[count_].result.place,\r\n                users[user_].pendingResult[count_].amount,\r\n                users[user_].pendingResult[count_].paid,\r\n                users[user_].pendingResult[count_].payableTo\r\n                \r\n        );\r\n    }\r\n    \r\n    \r\n    function getPendingHealthRecordLength (address user_) public view returns (uint256){\r\n        require(msg.sender == user_);\r\n        return(users[user_].pendingResult.length);\r\n    }\r\n    \r\n    \r\n    \r\n    function getOwner() public view returns (address){\r\n        return(contractOwner);\r\n    }\r\n    \r\n    \r\n    \r\n    \r\n}",
  "sourcePath": "D:/Wen/Uni_stuff/year_4/FYP/fyp-blockchain/contracts/HealthRecord.sol",
  "compiler": {
    "name": "solc",
    "version": "0.7.6+commit.7338295f.Emscripten.clang"
  },
  "schemaVersion": "3.3.4",
  "updatedAt": "2021-04-15T21:33:44.790Z",
  "networkType": "ethereum",
  "devdoc": {
    "kind": "dev",
    "methods": {},
    "version": 1
  },
  "userdoc": {
    "kind": "user",
    "methods": {},
    "version": 1
  }
}