{
  "contractName": "HealthRecord",
  "abi": [
    {
      "inputs": [],
      "stateMutability": "nonpayable",
      "type": "constructor"
    },
    {
      "inputs": [
        {
          "internalType": "address",
          "name": "user_",
          "type": "address"
        }
      ],
      "name": "registerUser",
      "outputs": [],
      "stateMutability": "nonpayable",
      "type": "function"
    },
    {
      "inputs": [
        {
          "internalType": "string",
          "name": "venue_",
          "type": "string"
        },
        {
          "internalType": "string",
          "name": "location_",
          "type": "string"
        },
        {
          "internalType": "string",
          "name": "date_",
          "type": "string"
        },
        {
          "internalType": "address",
          "name": "provider_",
          "type": "address"
        },
        {
          "internalType": "string",
          "name": "encryptedUserInfo_",
          "type": "string"
        }
      ],
      "name": "userMakeAppointment",
      "outputs": [],
      "stateMutability": "nonpayable",
      "type": "function"
    },
    {
      "inputs": [
        {
          "internalType": "uint256",
          "name": "count_",
          "type": "uint256"
        },
        {
          "internalType": "address",
          "name": "users_",
          "type": "address"
        }
      ],
      "name": "getUserAppointmentList",
      "outputs": [
        {
          "internalType": "string",
          "name": "",
          "type": "string"
        },
        {
          "internalType": "string",
          "name": "",
          "type": "string"
        },
        {
          "internalType": "string",
          "name": "",
          "type": "string"
        }
      ],
      "stateMutability": "view",
      "type": "function",
      "constant": true
    },
    {
      "inputs": [
        {
          "internalType": "uint256",
          "name": "count_",
          "type": "uint256"
        },
        {
          "internalType": "address",
          "name": "provider_",
          "type": "address"
        }
      ],
      "name": "getProviderAppointmentList",
      "outputs": [
        {
          "internalType": "address",
          "name": "",
          "type": "address"
        },
        {
          "internalType": "string",
          "name": "",
          "type": "string"
        },
        {
          "internalType": "string",
          "name": "",
          "type": "string"
        }
      ],
      "stateMutability": "view",
      "type": "function",
      "constant": true
    },
    {
      "inputs": [
        {
          "internalType": "address",
          "name": "users_",
          "type": "address"
        }
      ],
      "name": "getUserAppointmentListLength",
      "outputs": [
        {
          "internalType": "uint256",
          "name": "",
          "type": "uint256"
        }
      ],
      "stateMutability": "view",
      "type": "function",
      "constant": true
    },
    {
      "inputs": [
        {
          "internalType": "address",
          "name": "provider_",
          "type": "address"
        }
      ],
      "name": "getProviderAppointmentListLength",
      "outputs": [
        {
          "internalType": "uint256",
          "name": "",
          "type": "uint256"
        }
      ],
      "stateMutability": "view",
      "type": "function",
      "constant": true
    },
    {
      "inputs": [
        {
          "internalType": "uint256",
          "name": "count_",
          "type": "uint256"
        },
        {
          "internalType": "address",
          "name": "provider_",
          "type": "address"
        }
      ],
      "name": "getProviderHistoryList",
      "outputs": [
        {
          "internalType": "address",
          "name": "",
          "type": "address"
        },
        {
          "internalType": "string",
          "name": "",
          "type": "string"
        }
      ],
      "stateMutability": "view",
      "type": "function",
      "constant": true
    },
    {
      "inputs": [
        {
          "internalType": "address",
          "name": "provider_",
          "type": "address"
        }
      ],
      "name": "getProviderHistoryListLength",
      "outputs": [
        {
          "internalType": "uint256",
          "name": "",
          "type": "uint256"
        }
      ],
      "stateMutability": "view",
      "type": "function",
      "constant": true
    },
    {
      "inputs": [
        {
          "internalType": "address",
          "name": "kiosk_",
          "type": "address"
        },
        {
          "internalType": "string",
          "name": "location_",
          "type": "string"
        },
        {
          "internalType": "string",
          "name": "name_",
          "type": "string"
        }
      ],
      "name": "registerKiosk",
      "outputs": [],
      "stateMutability": "nonpayable",
      "type": "function"
    },
    {
      "inputs": [
        {
          "internalType": "address",
          "name": "hospital_",
          "type": "address"
        },
        {
          "internalType": "string",
          "name": "location_",
          "type": "string"
        },
        {
          "internalType": "string",
          "name": "name_",
          "type": "string"
        }
      ],
      "name": "registerHospital",
      "outputs": [],
      "stateMutability": "nonpayable",
      "type": "function"
    },
    {
      "inputs": [
        {
          "internalType": "address",
          "name": "provider_",
          "type": "address"
        }
      ],
      "name": "disableProvider",
      "outputs": [],
      "stateMutability": "nonpayable",
      "type": "function"
    },
    {
      "inputs": [
        {
          "internalType": "address",
          "name": "provider_",
          "type": "address"
        }
      ],
      "name": "getProviderInfo",
      "outputs": [
        {
          "internalType": "string",
          "name": "",
          "type": "string"
        },
        {
          "internalType": "string",
          "name": "",
          "type": "string"
        }
      ],
      "stateMutability": "view",
      "type": "function",
      "constant": true
    },
    {
      "inputs": [
        {
          "internalType": "uint256",
          "name": "count_",
          "type": "uint256"
        },
        {
          "internalType": "address",
          "name": "user_",
          "type": "address"
        }
      ],
      "name": "getHealthRecord",
      "outputs": [
        {
          "internalType": "string",
          "name": "",
          "type": "string"
        },
        {
          "internalType": "string",
          "name": "",
          "type": "string"
        }
      ],
      "stateMutability": "view",
      "type": "function",
      "constant": true
    },
    {
      "inputs": [
        {
          "internalType": "string",
          "name": "testResult_",
          "type": "string"
        },
        {
          "internalType": "string",
          "name": "date_",
          "type": "string"
        },
        {
          "internalType": "string",
          "name": "placeName_",
          "type": "string"
        },
        {
          "internalType": "string",
          "name": "place_",
          "type": "string"
        },
        {
          "internalType": "address",
          "name": "endUser",
          "type": "address"
        },
        {
          "internalType": "uint256",
          "name": "amount_",
          "type": "uint256"
        }
      ],
      "name": "addPendingHealthRecord",
      "outputs": [],
      "stateMutability": "nonpayable",
      "type": "function"
    },
    {
      "inputs": [
        {
          "internalType": "address",
          "name": "user_",
          "type": "address"
        },
        {
          "internalType": "bool",
          "name": "paidStatus_",
          "type": "bool"
        },
        {
          "internalType": "uint256",
          "name": "count_",
          "type": "uint256"
        }
      ],
      "name": "updatePendingHealthRecord",
      "outputs": [],
      "stateMutability": "nonpayable",
      "type": "function"
    },
    {
      "inputs": [
        {
          "internalType": "uint256",
          "name": "count_",
          "type": "uint256"
        },
        {
          "internalType": "address",
          "name": "user_",
          "type": "address"
        }
      ],
      "name": "getPendingHealthRecord",
      "outputs": [
        {
          "internalType": "string",
          "name": "",
          "type": "string"
        },
        {
          "internalType": "string",
          "name": "",
          "type": "string"
        },
        {
          "internalType": "string",
          "name": "",
          "type": "string"
        },
        {
          "internalType": "string",
          "name": "",
          "type": "string"
        },
        {
          "internalType": "uint256",
          "name": "",
          "type": "uint256"
        },
        {
          "internalType": "bool",
          "name": "",
          "type": "bool"
        },
        {
          "internalType": "address",
          "name": "",
          "type": "address"
        }
      ],
      "stateMutability": "view",
      "type": "function",
      "constant": true
    },
    {
      "inputs": [
        {
          "internalType": "address",
          "name": "user_",
          "type": "address"
        }
      ],
      "name": "getPendingHealthRecordLength",
      "outputs": [
        {
          "internalType": "uint256",
          "name": "",
          "type": "uint256"
        }
      ],
      "stateMutability": "view",
      "type": "function",
      "constant": true
    },
    {
      "inputs": [],
      "name": "getOwner",
      "outputs": [
        {
          "internalType": "address",
          "name": "",
          "type": "address"
        }
      ],
      "stateMutability": "view",
      "type": "function",
      "constant": true
    }
  ],
  "bytecode": "0x608060405234801561001057600080fd5b50336000806101000a81548173ffffffffffffffffffffffffffffffffffffffff021916908373ffffffffffffffffffffffffffffffffffffffff160217905550613bb6806100606000396000f3fe608060405234801561001057600080fd5b50600436106100e65760003560e01c806313f7c462146100eb5780632199d5cd1461023b578063427c38681461027f57806349d41e83146103b25780636b5dd33f146105245780637125b6f11461057c5780637583902f146107b45780637b746864146108dd57806385cef0b514610a4f578063893d20e814610aa75780638dc2fe9814610adb57806393125b9d14610b1f5780639a4a9b6814610c03578063b0518f4c14610ead578063eb38db121461104c578063ef18b520146110a6578063f409eb4614611346578063f559b2b21461139e575b600080fd5b6101376004803603604081101561010157600080fd5b8101908080359060200190929190803573ffffffffffffffffffffffffffffffffffffffff1690602001909291905050506113f6565b604051808473ffffffffffffffffffffffffffffffffffffffff1681526020018060200180602001838103835285818151815260200191508051906020019080838360005b8381101561019757808201518184015260208101905061017c565b50505050905090810190601f1680156101c45780820380516001836020036101000a031916815260200191505b50838103825284818151815260200191508051906020019080838360005b838110156101fd5780820151818401526020810190506101e2565b50505050905090810190601f16801561022a5780820380516001836020036101000a031916815260200191505b509550505050505060405180910390f35b61027d6004803603602081101561025157600080fd5b81019080803573ffffffffffffffffffffffffffffffffffffffff16906020019092919050505061171c565b005b6102cb6004803603604081101561029557600080fd5b8101908080359060200190929190803573ffffffffffffffffffffffffffffffffffffffff1690602001909291905050506117fb565b604051808060200180602001838103835285818151815260200191508051906020019080838360005b8381101561030f5780820151818401526020810190506102f4565b50505050905090810190601f16801561033c5780820380516001836020036101000a031916815260200191505b50838103825284818151815260200191508051906020019080838360005b8381101561037557808201518184015260208101905061035a565b50505050905090810190601f1680156103a25780820380516001836020036101000a031916815260200191505b5094505050505060405180910390f35b610522600480360360608110156103c857600080fd5b81019080803573ffffffffffffffffffffffffffffffffffffffff1690602001909291908035906020019064010000000081111561040557600080fd5b82018360208201111561041757600080fd5b8035906020019184600183028401116401000000008311171561043957600080fd5b91908080601f016020809104026020016040519081016040528093929190818152602001838380828437600081840152601f19601f8201169050808301925050505050505091929192908035906020019064010000000081111561049c57600080fd5b8201836020820111156104ae57600080fd5b803590602001918460018302840111640100000000831117156104d057600080fd5b91908080601f016020809104026020016040519081016040528093929190818152602001838380828437600081840152601f19601f820116905080830192505050505050509192919290505050611a03565b005b6105666004803603602081101561053a57600080fd5b81019080803573ffffffffffffffffffffffffffffffffffffffff169060200190929190505050611dd1565b6040518082815260200191505060405180910390f35b6105c86004803603604081101561059257600080fd5b8101908080359060200190929190803573ffffffffffffffffffffffffffffffffffffffff169060200190929190505050611ec1565b604051808060200180602001806020018060200188815260200187151581526020018673ffffffffffffffffffffffffffffffffffffffff16815260200185810385528c818151815260200191508051906020019080838360005b8381101561063e578082015181840152602081019050610623565b50505050905090810190601f16801561066b5780820380516001836020036101000a031916815260200191505b5085810384528b818151815260200191508051906020019080838360005b838110156106a4578082015181840152602081019050610689565b50505050905090810190601f1680156106d15780820380516001836020036101000a031916815260200191505b5085810383528a818151815260200191508051906020019080838360005b8381101561070a5780820151818401526020810190506106ef565b50505050905090810190601f1680156107375780820380516001836020036101000a031916815260200191505b50858103825289818151815260200191508051906020019080838360005b83811015610770578082015181840152602081019050610755565b50505050905090810190601f16801561079d5780820380516001836020036101000a031916815260200191505b509b50505050505050505050505060405180910390f35b6107f6600480360360208110156107ca57600080fd5b81019080803573ffffffffffffffffffffffffffffffffffffffff16906020019092919050505061245c565b604051808060200180602001838103835285818151815260200191508051906020019080838360005b8381101561083a57808201518184015260208101905061081f565b50505050905090810190601f1680156108675780820380516001836020036101000a031916815260200191505b50838103825284818151815260200191508051906020019080838360005b838110156108a0578082015181840152602081019050610885565b50505050905090810190601f1680156108cd5780820380516001836020036101000a031916815260200191505b5094505050505060405180910390f35b610a4d600480360360608110156108f357600080fd5b81019080803573ffffffffffffffffffffffffffffffffffffffff1690602001909291908035906020019064010000000081111561093057600080fd5b82018360208201111561094257600080fd5b8035906020019184600183028401116401000000008311171561096457600080fd5b91908080601f016020809104026020016040519081016040528093929190818152602001838380828437600081840152601f19601f820116905080830192505050505050509192919290803590602001906401000000008111156109c757600080fd5b8201836020820111156109d957600080fd5b803590602001918460018302840111640100000000831117156109fb57600080fd5b91908080601f016020809104026020016040519081016040528093929190818152602001838380828437600081840152601f19601f82011690508083019250505050505050919291929050505061267d565b005b610a9160048036036020811015610a6557600080fd5b81019080803573ffffffffffffffffffffffffffffffffffffffff1690602001909291905050506128cd565b6040518082815260200191505060405180910390f35b610aaf6129bd565b604051808273ffffffffffffffffffffffffffffffffffffffff16815260200191505060405180910390f35b610b1d60048036036020811015610af157600080fd5b81019080803573ffffffffffffffffffffffffffffffffffffffff1690602001909291905050506129e6565b005b610b6b60048036036040811015610b3557600080fd5b8101908080359060200190929190803573ffffffffffffffffffffffffffffffffffffffff169060200190929190505050612b05565b604051808373ffffffffffffffffffffffffffffffffffffffff16815260200180602001828103825283818151815260200191508051906020019080838360005b83811015610bc7578082015181840152602081019050610bac565b50505050905090810190601f168015610bf45780820380516001836020036101000a031916815260200191505b50935050505060405180910390f35b610eab600480360360c0811015610c1957600080fd5b8101908080359060200190640100000000811115610c3657600080fd5b820183602082011115610c4857600080fd5b80359060200191846001830284011164010000000083111715610c6a57600080fd5b91908080601f016020809104026020016040519081016040528093929190818152602001838380828437600081840152601f19601f82011690508083019250505050505050919291929080359060200190640100000000811115610ccd57600080fd5b820183602082011115610cdf57600080fd5b80359060200191846001830284011164010000000083111715610d0157600080fd5b91908080601f016020809104026020016040519081016040528093929190818152602001838380828437600081840152601f19601f82011690508083019250505050505050919291929080359060200190640100000000811115610d6457600080fd5b820183602082011115610d7657600080fd5b80359060200191846001830284011164010000000083111715610d9857600080fd5b91908080601f016020809104026020016040519081016040528093929190818152602001838380828437600081840152601f19601f82011690508083019250505050505050919291929080359060200190640100000000811115610dfb57600080fd5b820183602082011115610e0d57600080fd5b80359060200191846001830284011164010000000083111715610e2f57600080fd5b91908080601f016020809104026020016040519081016040528093929190818152602001838380828437600081840152601f19601f820116905080830192505050505050509192919290803573ffffffffffffffffffffffffffffffffffffffff16906020019092919080359060200190929190505050612d2e565b005b610ef960048036036040811015610ec357600080fd5b8101908080359060200190929190803573ffffffffffffffffffffffffffffffffffffffff169060200190929190505050612f59565b60405180806020018060200180602001848103845287818151815260200191508051906020019080838360005b83811015610f41578082015181840152602081019050610f26565b50505050905090810190601f168015610f6e5780820380516001836020036101000a031916815260200191505b50848103835286818151815260200191508051906020019080838360005b83811015610fa7578082015181840152602081019050610f8c565b50505050905090810190601f168015610fd45780820380516001836020036101000a031916815260200191505b50848103825285818151815260200191508051906020019080838360005b8381101561100d578082015181840152602081019050610ff2565b50505050905090810190601f16801561103a5780820380516001836020036101000a031916815260200191505b50965050505050505060405180910390f35b6110a46004803603606081101561106257600080fd5b81019080803573ffffffffffffffffffffffffffffffffffffffff169060200190929190803515159060200190929190803590602001909291905050506132fa565b005b611344600480360360a08110156110bc57600080fd5b81019080803590602001906401000000008111156110d957600080fd5b8201836020820111156110eb57600080fd5b8035906020019184600183028401116401000000008311171561110d57600080fd5b91908080601f016020809104026020016040519081016040528093929190818152602001838380828437600081840152601f19601f8201169050808301925050505050505091929192908035906020019064010000000081111561117057600080fd5b82018360208201111561118257600080fd5b803590602001918460018302840111640100000000831117156111a457600080fd5b91908080601f016020809104026020016040519081016040528093929190818152602001838380828437600081840152601f19601f8201169050808301925050505050505091929192908035906020019064010000000081111561120757600080fd5b82018360208201111561121957600080fd5b8035906020019184600183028401116401000000008311171561123b57600080fd5b91908080601f016020809104026020016040519081016040528093929190818152602001838380828437600081840152601f19601f820116905080830192505050505050509192919290803573ffffffffffffffffffffffffffffffffffffffff169060200190929190803590602001906401000000008111156112be57600080fd5b8201836020820111156112d057600080fd5b803590602001918460018302840111640100000000831117156112f257600080fd5b91908080601f016020809104026020016040519081016040528093929190818152602001838380828437600081840152601f19601f820116905080830192505050505050509192919290505050613375565b005b6113886004803603602081101561135c57600080fd5b81019080803573ffffffffffffffffffffffffffffffffffffffff1690602001909291905050506135df565b6040518082815260200191505060405180910390f35b6113e0600480360360208110156113b457600080fd5b81019080803573ffffffffffffffffffffffffffffffffffffffff1690602001909291905050506136cf565b6040518082815260200191505060405180910390f35b60006060808373ffffffffffffffffffffffffffffffffffffffff163373ffffffffffffffffffffffffffffffffffffffff161461149c576040517f08c379a00000000000000000000000000000000000000000000000000000000081526004018080602001828103825260208152602001807f596f752063616e206f6e6c79207669657720796f7572206f776e20696e666f2e81525060200191505060405180910390fd5b600260008573ffffffffffffffffffffffffffffffffffffffff1673ffffffffffffffffffffffffffffffffffffffff16815260200190815260200160002060050185815481106114e957fe5b906000526020600020906003020160000160009054906101000a900473ffffffffffffffffffffffffffffffffffffffff16600260008673ffffffffffffffffffffffffffffffffffffffff1673ffffffffffffffffffffffffffffffffffffffff168152602001908152602001600020600501868154811061156857fe5b9060005260206000209060030201600101600260008773ffffffffffffffffffffffffffffffffffffffff1673ffffffffffffffffffffffffffffffffffffffff16815260200190815260200160002060050187815481106115c657fe5b9060005260206000209060030201600201818054600181600116156101000203166002900480601f01602080910402602001604051908101604052809291908181526020018280546001816001161561010002031660029004801561166c5780601f106116415761010080835404028352916020019161166c565b820191906000526020600020905b81548152906001019060200180831161164f57829003601f168201915b50505050509150808054600181600116156101000203166002900480601f0160208091040260200160405190810160405280929190818152602001828054600181600116156101000203166002900480156117085780601f106116dd57610100808354040283529160200191611708565b820191906000526020600020905b8154815290600101906020018083116116eb57829003601f168201915b505050505090509250925092509250925092565b80600360008373ffffffffffffffffffffffffffffffffffffffff1673ffffffffffffffffffffffffffffffffffffffff16815260200190815260200160002060000160006101000a81548173ffffffffffffffffffffffffffffffffffffffff021916908373ffffffffffffffffffffffffffffffffffffffff1602179055506001600360008373ffffffffffffffffffffffffffffffffffffffff1673ffffffffffffffffffffffffffffffffffffffff16815260200190815260200160002060040160006101000a81548160ff02191690831515021790555050565b606080600360008473ffffffffffffffffffffffffffffffffffffffff1673ffffffffffffffffffffffffffffffffffffffff168152602001908152602001600020600201848154811061184b57fe5b9060005260206000209060070201600001600001600360008573ffffffffffffffffffffffffffffffffffffffff1673ffffffffffffffffffffffffffffffffffffffff16815260200190815260200160002060020185815481106118ac57fe5b9060005260206000209060070201600001600301818054600181600116156101000203166002900480601f0160208091040260200160405190810160405280929190818152602001828054600181600116156101000203166002900480156119555780601f1061192a57610100808354040283529160200191611955565b820191906000526020600020905b81548152906001019060200180831161193857829003601f168201915b50505050509150808054600181600116156101000203166002900480601f0160208091040260200160405190810160405280929190818152602001828054600181600116156101000203166002900480156119f15780601f106119c6576101008083540402835291602001916119f1565b820191906000526020600020905b8154815290600101906020018083116119d457829003601f168201915b50505050509050915091509250929050565b60008054906101000a900473ffffffffffffffffffffffffffffffffffffffff1673ffffffffffffffffffffffffffffffffffffffff163373ffffffffffffffffffffffffffffffffffffffff1614611ac4576040517f08c379a00000000000000000000000000000000000000000000000000000000081526004018080602001828103825260208152602001807f4f6e6c7920636f6e7472616374206f776e65722063616e20646f20746869732e81525060200191505060405180910390fd5b82600260008573ffffffffffffffffffffffffffffffffffffffff1673ffffffffffffffffffffffffffffffffffffffff16815260200190815260200160002060000160006101000a81548173ffffffffffffffffffffffffffffffffffffffff021916908373ffffffffffffffffffffffffffffffffffffffff16021790555081600260008573ffffffffffffffffffffffffffffffffffffffff1673ffffffffffffffffffffffffffffffffffffffff1681526020019081526020016000206001019080519060200190611b9b929190613756565b5080600260008573ffffffffffffffffffffffffffffffffffffffff1673ffffffffffffffffffffffffffffffffffffffff1681526020019081526020016000206002019080519060200190611bf2929190613756565b506001600260008573ffffffffffffffffffffffffffffffffffffffff1673ffffffffffffffffffffffffffffffffffffffff16815260200190815260200160002060030160006101000a81548160ff0219169083151502179055506001600260008573ffffffffffffffffffffffffffffffffffffffff1673ffffffffffffffffffffffffffffffffffffffff16815260200190815260200160002090806001815401808255809150506001900390600052602060002090600602016000909190919091506000820160009054906101000a900473ffffffffffffffffffffffffffffffffffffffff168160000160006101000a81548173ffffffffffffffffffffffffffffffffffffffff021916908373ffffffffffffffffffffffffffffffffffffffff16021790555060018201816001019080546001816001161561010002031660029004611d469291906137e4565b5060028201816002019080546001816001161561010002031660029004611d6e9291906137e4565b506003820160009054906101000a900460ff168160030160006101000a81548160ff0219169083151502179055506004820181600401908054611db2929190613879565b506005820181600501908054611dc9929190613960565b505050505050565b60008173ffffffffffffffffffffffffffffffffffffffff163373ffffffffffffffffffffffffffffffffffffffff1614611e74576040517f08c379a00000000000000000000000000000000000000000000000000000000081526004018080602001828103825260208152602001807f596f752063616e206f6e6c79207669657720796f7572206f776e20696e666f2e81525060200191505060405180910390fd5b600260008373ffffffffffffffffffffffffffffffffffffffff1673ffffffffffffffffffffffffffffffffffffffff168152602001908152602001600020600501805490509050919050565b60608060608060008060008773ffffffffffffffffffffffffffffffffffffffff163373ffffffffffffffffffffffffffffffffffffffff1614611f0457600080fd5b600360008973ffffffffffffffffffffffffffffffffffffffff1673ffffffffffffffffffffffffffffffffffffffff1681526020019081526020016000206002018981548110611f5157fe5b9060005260206000209060070201600001600001600360008a73ffffffffffffffffffffffffffffffffffffffff1673ffffffffffffffffffffffffffffffffffffffff1681526020019081526020016000206002018a81548110611fb257fe5b9060005260206000209060070201600001600101600360008b73ffffffffffffffffffffffffffffffffffffffff1673ffffffffffffffffffffffffffffffffffffffff1681526020019081526020016000206002018b8154811061201357fe5b9060005260206000209060070201600001600201600360008c73ffffffffffffffffffffffffffffffffffffffff1673ffffffffffffffffffffffffffffffffffffffff1681526020019081526020016000206002018c8154811061207457fe5b9060005260206000209060070201600001600301600360008d73ffffffffffffffffffffffffffffffffffffffff1673ffffffffffffffffffffffffffffffffffffffff1681526020019081526020016000206002018d815481106120d557fe5b906000526020600020906007020160050154600360008e73ffffffffffffffffffffffffffffffffffffffff1673ffffffffffffffffffffffffffffffffffffffff1681526020019081526020016000206002018e8154811061213457fe5b906000526020600020906007020160040160009054906101000a900460ff16600360008f73ffffffffffffffffffffffffffffffffffffffff1673ffffffffffffffffffffffffffffffffffffffff1681526020019081526020016000206002018f815481106121a057fe5b906000526020600020906007020160060160009054906101000a900473ffffffffffffffffffffffffffffffffffffffff16868054600181600116156101000203166002900480601f0160208091040260200160405190810160405280929190818152602001828054600181600116156101000203166002900480156122675780601f1061223c57610100808354040283529160200191612267565b820191906000526020600020905b81548152906001019060200180831161224a57829003601f168201915b50505050509650858054600181600116156101000203166002900480601f0160208091040260200160405190810160405280929190818152602001828054600181600116156101000203166002900480156123035780601f106122d857610100808354040283529160200191612303565b820191906000526020600020905b8154815290600101906020018083116122e657829003601f168201915b50505050509550848054600181600116156101000203166002900480601f01602080910402602001604051908101604052809291908181526020018280546001816001161561010002031660029004801561239f5780601f106123745761010080835404028352916020019161239f565b820191906000526020600020905b81548152906001019060200180831161238257829003601f168201915b50505050509450838054600181600116156101000203166002900480601f01602080910402602001604051908101604052809291908181526020018280546001816001161561010002031660029004801561243b5780601f106124105761010080835404028352916020019161243b565b820191906000526020600020905b81548152906001019060200180831161241e57829003601f168201915b50505050509350965096509650965096509650965092959891949750929550565b606080600260008473ffffffffffffffffffffffffffffffffffffffff1673ffffffffffffffffffffffffffffffffffffffff16815260200190815260200160002060030160009054906101000a900460ff166124b857600080fd5b600260008473ffffffffffffffffffffffffffffffffffffffff1673ffffffffffffffffffffffffffffffffffffffff168152602001908152602001600020600201600260008573ffffffffffffffffffffffffffffffffffffffff1673ffffffffffffffffffffffffffffffffffffffff168152602001908152602001600020600101818054600181600116156101000203166002900480601f0160208091040260200160405190810160405280929190818152602001828054600181600116156101000203166002900480156125d15780601f106125a6576101008083540402835291602001916125d1565b820191906000526020600020905b8154815290600101906020018083116125b457829003601f168201915b50505050509150808054600181600116156101000203166002900480601f01602080910402602001604051908101604052809291908181526020018280546001816001161561010002031660029004801561266d5780601f106126425761010080835404028352916020019161266d565b820191906000526020600020905b81548152906001019060200180831161265057829003601f168201915b5050505050905091509150915091565b60008054906101000a900473ffffffffffffffffffffffffffffffffffffffff1673ffffffffffffffffffffffffffffffffffffffff163373ffffffffffffffffffffffffffffffffffffffff161461273e576040517f08c379a00000000000000000000000000000000000000000000000000000000081526004018080602001828103825260208152602001807f4f6e6c7920636f6e7472616374206f776e65722063616e20646f20746869732e81525060200191505060405180910390fd5b82600260008573ffffffffffffffffffffffffffffffffffffffff1673ffffffffffffffffffffffffffffffffffffffff16815260200190815260200160002060000160006101000a81548173ffffffffffffffffffffffffffffffffffffffff021916908373ffffffffffffffffffffffffffffffffffffffff16021790555081600260008573ffffffffffffffffffffffffffffffffffffffff1673ffffffffffffffffffffffffffffffffffffffff1681526020019081526020016000206001019080519060200190612815929190613756565b5080600260008573ffffffffffffffffffffffffffffffffffffffff1673ffffffffffffffffffffffffffffffffffffffff168152602001908152602001600020600201908051906020019061286c929190613756565b506001600260008573ffffffffffffffffffffffffffffffffffffffff1673ffffffffffffffffffffffffffffffffffffffff16815260200190815260200160002060030160006101000a81548160ff021916908315150217905550505050565b60008173ffffffffffffffffffffffffffffffffffffffff163373ffffffffffffffffffffffffffffffffffffffff1614612970576040517f08c379a00000000000000000000000000000000000000000000000000000000081526004018080602001828103825260208152602001807f596f752063616e206f6e6c79207669657720796f7572206f776e20696e666f2e81525060200191505060405180910390fd5b600360008373ffffffffffffffffffffffffffffffffffffffff1673ffffffffffffffffffffffffffffffffffffffff168152602001908152602001600020600301805490509050919050565b60008060009054906101000a900473ffffffffffffffffffffffffffffffffffffffff16905090565b60008054906101000a900473ffffffffffffffffffffffffffffffffffffffff1673ffffffffffffffffffffffffffffffffffffffff163373ffffffffffffffffffffffffffffffffffffffff1614612aa7576040517f08c379a00000000000000000000000000000000000000000000000000000000081526004018080602001828103825260208152602001807f4f6e6c7920636f6e7472616374206f776e65722063616e20646f20746869732e81525060200191505060405180910390fd5b6000600260008373ffffffffffffffffffffffffffffffffffffffff1673ffffffffffffffffffffffffffffffffffffffff16815260200190815260200160002060030160006101000a81548160ff02191690831515021790555050565b600060608273ffffffffffffffffffffffffffffffffffffffff163373ffffffffffffffffffffffffffffffffffffffff1614612baa576040517f08c379a00000000000000000000000000000000000000000000000000000000081526004018080602001828103825260208152602001807f596f752063616e206f6e6c79207669657720796f7572206f776e20696e666f2e81525060200191505060405180910390fd5b600260008473ffffffffffffffffffffffffffffffffffffffff1673ffffffffffffffffffffffffffffffffffffffff1681526020019081526020016000206004018481548110612bf757fe5b906000526020600020906002020160000160009054906101000a900473ffffffffffffffffffffffffffffffffffffffff16600260008573ffffffffffffffffffffffffffffffffffffffff1673ffffffffffffffffffffffffffffffffffffffff1681526020019081526020016000206004018581548110612c7657fe5b9060005260206000209060020201600101808054600181600116156101000203166002900480601f016020809104026020016040519081016040528092919081815260200182805460018160011615610100020316600290048015612d1c5780601f10612cf157610100808354040283529160200191612d1c565b820191906000526020600020905b815481529060010190602001808311612cff57829003601f168201915b50505050509050915091509250929050565b60011515600260003373ffffffffffffffffffffffffffffffffffffffff1673ffffffffffffffffffffffffffffffffffffffff16815260200190815260200160002060030160009054906101000a900460ff16151514612d8e57600080fd5b60006040518060800160405280888152602001868152602001878152602001858152509050600060405180608001604052808381526020016000151581526020018481526020013373ffffffffffffffffffffffffffffffffffffffff168152509050600360008573ffffffffffffffffffffffffffffffffffffffff1673ffffffffffffffffffffffffffffffffffffffff1681526020019081526020016000206002018190806001815401808255809150506001900390600052602060002090600702016000909190919091506000820151816000016000820151816000019080519060200190612e82929190613756565b506020820151816001019080519060200190612e9f929190613756565b506040820151816002019080519060200190612ebc929190613756565b506060820151816003019080519060200190612ed9929190613756565b50505060208201518160040160006101000a81548160ff0219169083151502179055506040820151816005015560608201518160060160006101000a81548173ffffffffffffffffffffffffffffffffffffffff021916908373ffffffffffffffffffffffffffffffffffffffff16021790555050505050505050505050565b60608060608373ffffffffffffffffffffffffffffffffffffffff163373ffffffffffffffffffffffffffffffffffffffff1614612fff576040517f08c379a00000000000000000000000000000000000000000000000000000000081526004018080602001828103825260208152602001807f596f752063616e206f6e6c79207669657720796f7572206f776e20696e666f2e81525060200191505060405180910390fd5b600360008573ffffffffffffffffffffffffffffffffffffffff1673ffffffffffffffffffffffffffffffffffffffff168152602001908152602001600020600301858154811061304c57fe5b9060005260206000209060030201600001600360008673ffffffffffffffffffffffffffffffffffffffff1673ffffffffffffffffffffffffffffffffffffffff16815260200190815260200160002060030186815481106130aa57fe5b9060005260206000209060030201600101600360008773ffffffffffffffffffffffffffffffffffffffff1673ffffffffffffffffffffffffffffffffffffffff168152602001908152602001600020600301878154811061310857fe5b9060005260206000209060030201600201828054600181600116156101000203166002900480601f0160208091040260200160405190810160405280929190818152602001828054600181600116156101000203166002900480156131ae5780601f10613183576101008083540402835291602001916131ae565b820191906000526020600020905b81548152906001019060200180831161319157829003601f168201915b50505050509250818054600181600116156101000203166002900480601f01602080910402602001604051908101604052809291908181526020018280546001816001161561010002031660029004801561324a5780601f1061321f5761010080835404028352916020019161324a565b820191906000526020600020905b81548152906001019060200180831161322d57829003601f168201915b50505050509150808054600181600116156101000203166002900480601f0160208091040260200160405190810160405280929190818152602001828054600181600116156101000203166002900480156132e65780601f106132bb576101008083540402835291602001916132e6565b820191906000526020600020905b8154815290600101906020018083116132c957829003601f168201915b505050505090509250925092509250925092565b81600360008573ffffffffffffffffffffffffffffffffffffffff1673ffffffffffffffffffffffffffffffffffffffff168152602001908152602001600020600201828154811061334857fe5b906000526020600020906007020160040160006101000a81548160ff021916908315150217905550505050565b600360003373ffffffffffffffffffffffffffffffffffffffff1673ffffffffffffffffffffffffffffffffffffffff16815260200190815260200160002060040160009054906101000a900460ff166133ce57600080fd5b60006040518060600160405280878152602001868152602001858152509050600360003373ffffffffffffffffffffffffffffffffffffffff1673ffffffffffffffffffffffffffffffffffffffff1681526020019081526020016000206003018190806001815401808255809150506001900390600052602060002090600302016000909190919091506000820151816000019080519060200190613475929190613756565b506020820151816001019080519060200190613492929190613756565b5060408201518160020190805190602001906134af929190613756565b505050600060405180606001604052803373ffffffffffffffffffffffffffffffffffffffff168152602001868152602001848152509050600260008573ffffffffffffffffffffffffffffffffffffffff1673ffffffffffffffffffffffffffffffffffffffff16815260200190815260200160002060050181908060018154018082558091505060019003906000526020600020906003020160009091909190915060008201518160000160006101000a81548173ffffffffffffffffffffffffffffffffffffffff021916908373ffffffffffffffffffffffffffffffffffffffff16021790555060208201518160010190805190602001906135b6929190613756565b5060408201518160020190805190602001906135d3929190613756565b50505050505050505050565b60008173ffffffffffffffffffffffffffffffffffffffff163373ffffffffffffffffffffffffffffffffffffffff1614613682576040517f08c379a00000000000000000000000000000000000000000000000000000000081526004018080602001828103825260208152602001807f596f752063616e206f6e6c79207669657720796f7572206f776e20696e666f2e81525060200191505060405180910390fd5b600260008373ffffffffffffffffffffffffffffffffffffffff1673ffffffffffffffffffffffffffffffffffffffff168152602001908152602001600020600401805490509050919050565b60008173ffffffffffffffffffffffffffffffffffffffff163373ffffffffffffffffffffffffffffffffffffffff161461370957600080fd5b600360008373ffffffffffffffffffffffffffffffffffffffff1673ffffffffffffffffffffffffffffffffffffffff168152602001908152602001600020600201805490509050919050565b828054600181600116156101000203166002900490600052602060002090601f01602090048101928261378c57600085556137d3565b82601f106137a557805160ff19168380011785556137d3565b828001600101855582156137d3579182015b828111156137d25782518255916020019190600101906137b7565b5b5090506137e09190613a6f565b5090565b828054600181600116156101000203166002900490600052602060002090601f01602090048101928261381a5760008555613868565b82601f1061382b5780548555613868565b8280016001018555821561386857600052602060002091601f016020900482015b8281111561386757825482559160010191906001019061384c565b5b5090506138759190613a6f565b5090565b82805482825590600052602060002090600202810192821561394f5760005260206000209160020282015b8281111561394e5782826000820160009054906101000a900473ffffffffffffffffffffffffffffffffffffffff168160000160006101000a81548173ffffffffffffffffffffffffffffffffffffffff021916908373ffffffffffffffffffffffffffffffffffffffff1602179055506001820181600101908054600181600116156101000203166002900461393c9291906137e4565b505050916002019190600201906138a4565b5b50905061395c9190613a8c565b5090565b828054828255906000526020600020906003028101928215613a5e5760005260206000209160030282015b82811115613a5d5782826000820160009054906101000a900473ffffffffffffffffffffffffffffffffffffffff168160000160006101000a81548173ffffffffffffffffffffffffffffffffffffffff021916908373ffffffffffffffffffffffffffffffffffffffff16021790555060018201816001019080546001816001161561010002031660029004613a239291906137e4565b5060028201816002019080546001816001161561010002031660029004613a4b9291906137e4565b5050509160030191906003019061398b565b5b509050613a6b9190613ada565b5090565b5b80821115613a88576000816000905550600101613a70565b5090565b5b80821115613ad657600080820160006101000a81549073ffffffffffffffffffffffffffffffffffffffff0219169055600182016000613acd9190613b38565b50600201613a8d565b5090565b5b80821115613b3457600080820160006101000a81549073ffffffffffffffffffffffffffffffffffffffff0219169055600182016000613b1b9190613b38565b600282016000613b2b9190613b38565b50600301613adb565b5090565b50805460018160011615610100020316600290046000825580601f10613b5e5750613b7d565b601f016020900490600052602060002090810190613b7c9190613a6f565b5b5056fea2646970667358221220661ba5f2ddea724c2ca173fb0caa25ffead56d54766273fa97fee8b8ea2d389064736f6c63430007060033",
  "immutableReferences": {},
  "source": "// SPDX-License-Identifier: GPL-3.0\r\npragma solidity >=0.7.0 <=0.8.3;\r\n\r\ncontract HealthRecord{\r\n    \r\n    address private contractOwner;\r\n    \r\n    struct UserResult{\r\n        string testResult;\r\n        string date;\r\n        string placeName;\r\n        string location;\r\n    }\r\n    \r\n    struct PendingTransaction{\r\n        UserResult result;\r\n        bool paid;\r\n        uint256 amount;\r\n        address payableTo;\r\n        \r\n    }\r\n\r\n    \r\n    struct AppointmentListUser{\r\n        string provName;\r\n        string provLocation;\r\n        string date;\r\n    }\r\n    \r\n    struct AppointmentListProvider{\r\n        address patient;\r\n        string date;\r\n        string encryptedUserInfo;\r\n    }\r\n    \r\n    \r\n    struct History{\r\n        address patientAddress;\r\n        string date;\r\n    }\r\n    \r\n    \r\n    struct ProviderUser{\r\n        address userAddress;\r\n        string location;\r\n        string placeName;\r\n        bool isActive;\r\n        History[] historyList;\r\n        AppointmentListProvider[] appointmentList;\r\n        \r\n    }\r\n    \r\n    struct User{\r\n        address userAddress;\r\n        UserResult[] results;\r\n        PendingTransaction[] pendingResult;\r\n        AppointmentListUser[] appointmentList;\r\n        bool isActive;\r\n    }\r\n    \r\n    // struct HospitalUser{\r\n    //     address userAddress;\r\n    //     string location;\r\n    //     string placeName;\r\n    //     bool isActive;\r\n    // }\r\n    \r\n    ProviderUser[] private hospitalList; // just a list \r\n  //  mapping (address => HospitalUser) private hospital;\r\n    mapping (address => ProviderUser) private provider;\r\n    mapping (address  => User) private users; // maybe change to private\r\n    \r\n    \r\n    constructor (){\r\n        contractOwner = msg.sender;\r\n    }\r\n    \r\n    //add users\r\n    function registerUser(address user_) public{\r\n       // require(msg.sender == user_);\r\n        users[user_].userAddress = user_;\r\n        users[user_].isActive = true;\r\n        \r\n    }\r\n    \r\n    function userMakeAppointment(string memory venue_, string memory location_, string memory date_, address provider_, string memory encryptedUserInfo_) public{\r\n        require(users[msg.sender].isActive);\r\n        AppointmentListUser memory appoint_ = AppointmentListUser(venue_, location_, date_);\r\n        users[msg.sender].appointmentList.push(appoint_);\r\n        AppointmentListProvider memory appointProv_ = AppointmentListProvider(msg.sender, date_, encryptedUserInfo_);\r\n        provider[provider_].appointmentList.push(appointProv_);\r\n        \r\n    }\r\n    \r\n    function getUserAppointmentList(uint count_, address users_) public view returns (string memory, string memory, string memory){\r\n        require(msg.sender == users_, \"You can only view your own info.\");\r\n        return(\r\n            users[users_].appointmentList[count_].provName,\r\n            users[users_].appointmentList[count_].provLocation,\r\n            users[users_].appointmentList[count_].date\r\n            );\r\n    }\r\n    \r\n    function getProviderAppointmentList(uint count_, address provider_) public view returns(address, string memory, string memory){\r\n        require(msg.sender == provider_,  \"You can only view your own info.\");\r\n        return(\r\n            provider[provider_].appointmentList[count_].patient,\r\n            provider[provider_].appointmentList[count_].date,\r\n            provider[provider_].appointmentList[count_].encryptedUserInfo\r\n            \r\n            );\r\n    }\r\n    \r\n    \r\n    function getUserAppointmentListLength(address users_) public view returns(uint256){\r\n        require(msg.sender == users_, \"You can only view your own info.\");\r\n        return(\r\n            users[users_].appointmentList.length\r\n            );\r\n        \r\n    }\r\n    \r\n    function getProviderAppointmentListLength(address provider_) public view returns(uint256){\r\n        require(msg.sender == provider_, \"You can only view your own info.\");\r\n        return(\r\n            provider[provider_].appointmentList.length\r\n            );\r\n    }\r\n    \r\n    \r\n    function getProviderHistoryList(uint256 count_, address provider_) public view returns(address , string memory){\r\n        require(msg.sender == provider_, \"You can only view your own info.\");\r\n        return(\r\n            provider[provider_].historyList[count_].patientAddress,\r\n            provider[provider_].historyList[count_].date\r\n            );\r\n    }\r\n    \r\n    function getProviderHistoryListLength(address provider_) public view returns(uint256){\r\n        require(msg.sender == provider_, \"You can only view your own info.\");\r\n        return(\r\n            provider[provider_].historyList.length\r\n            );\r\n    }\r\n    \r\n    \r\n    function registerKiosk(address kiosk_, string memory location_, string memory name_) public{\r\n        require(msg.sender == contractOwner, \"Only contract owner can do this.\");\r\n        provider[kiosk_].userAddress = kiosk_;\r\n        provider[kiosk_].location = location_;\r\n        provider[kiosk_].placeName = name_;\r\n        provider[kiosk_].isActive = true;\r\n    }\r\n    \r\n    function registerHospital(address hospital_, string memory location_, string memory name_) public{\r\n        require(msg.sender == contractOwner, \"Only contract owner can do this.\");\r\n        // ProviderUser memory hUser = ProviderUser(hospital_, location_, name_, true);\r\n        \r\n        // provider[hospital_] = hUser;\r\n        provider[hospital_].userAddress = hospital_;\r\n        provider[hospital_].location = location_;\r\n        provider[hospital_].placeName = name_;\r\n        provider[hospital_].isActive = true;\r\n        hospitalList.push(provider[hospital_]);\r\n    }\r\n    \r\n    function disableProvider(address provider_) public{\r\n        require(msg.sender == contractOwner, \"Only contract owner can do this.\");\r\n        provider[provider_].isActive = false;\r\n    }\r\n  \r\n    \r\n    function getProviderInfo(address provider_) public view returns(string memory, string memory){\r\n        require(provider[provider_].isActive);\r\n        return(\r\n            provider[provider_].placeName,\r\n            provider[provider_].location\r\n            );\r\n        \r\n    }\r\n    \r\n    \r\n    //add record as kiosk\r\n    // function addHealthRecord(address endUser, string memory testresult_, string memory temp_, string memory place_) public{\r\n    //     require(provider[msg.sender].isActive == true);\r\n    //     UserResult memory result_ = UserResult(testresult_, temp_, place_);\r\n    //     users[endUser].results.push(result_);\r\n    // }\r\n    \r\n    //get record as user\r\n    function getHealthRecord(uint count_ , address user_) public view returns(string memory , string memory){\r\n        return (users[user_].pendingResult[count_].result.testResult, users[user_].pendingResult[count_].result.location );\r\n    }\r\n    \r\n    \r\n    //add transaction \r\n    function addPendingHealthRecord(string memory testResult_, string memory date_, string memory placeName_ ,string memory place_ , address endUser, uint256 amount_) public{\r\n        require(provider[msg.sender].isActive == true );\r\n        UserResult memory resultData = UserResult(testResult_,placeName_, date_, place_);\r\n        PendingTransaction memory pendingResult_ = PendingTransaction(resultData, false, amount_, msg.sender);\r\n        users[endUser].pendingResult.push(pendingResult_);\r\n        \r\n\r\n    }\r\n    \r\n    function updatePendingHealthRecord(address user_, bool paidStatus_, uint256 count_ ) public{\r\n        users[user_].pendingResult[count_].paid = paidStatus_;\r\n    }\r\n    \r\n    //get record as user\r\n    function getPendingHealthRecord(uint count_, address user_) public view returns(string memory, string memory,string memory, string memory, uint256, bool, address  ){\r\n        require(msg.sender == user_);\r\n        return (users[user_].pendingResult[count_].result.testResult, \r\n                users[user_].pendingResult[count_].result.date , \r\n                users[user_].pendingResult[count_].result.placeName,\r\n                users[user_].pendingResult[count_].result.location,\r\n                \r\n                users[user_].pendingResult[count_].amount,\r\n                users[user_].pendingResult[count_].paid,\r\n                users[user_].pendingResult[count_].payableTo\r\n                \r\n        );\r\n    }\r\n    \r\n    \r\n    function getPendingHealthRecordLength (address user_) public view returns (uint256){\r\n        require(msg.sender == user_);\r\n        return(users[user_].pendingResult.length);\r\n    }\r\n    \r\n    //function getHospitalList()\r\n    \r\n    \r\n    function getOwner() public view returns (address){\r\n        return(contractOwner);\r\n    }\r\n    \r\n    \r\n    \r\n    \r\n    \r\n    \r\n}",
  "sourcePath": "D:/Wen/Uni_stuff/year_4/FYP/fyp-blockchain/contracts/HealthRecord.sol",
  "compiler": {
    "name": "solc",
    "version": "0.7.6+commit.7338295f.Emscripten.clang"
  },
  "schemaVersion": "3.3.4",
  "updatedAt": "2021-04-17T06:20:19.900Z",
  "networkType": "ethereum",
  "devdoc": {
    "kind": "dev",
    "methods": {},
    "version": 1
  },
  "userdoc": {
    "kind": "user",
    "methods": {},
    "version": 1
  }
}